{
  "transactions": [
    {
      "hash": "0x7b2858178d1d8415bcadda3cae98addf8bda4bc82e7a907d9b98642e3173d71f",
      "transactionType": "CALL",
      "contractName": null,
      "contractAddress": "0xe554fe204af7b99e566fc86ee9b4f34f8364b7b1",
      "function": "setTokens(address[])",
      "arguments": [
        "[0x176211869cA2b568f2A7D4EE941E073a821EE1ff, 0x3aAB2285ddcDdaD8edf438C1bAB47e1a9D05a9b4, 0x636B22bC471c955A8DB60f28D4795066a8201fa3, 0xA219439258ca9da29E9Cc4cE5596924745e12B93, 0xe5D7C2a44FfDDf6b295A15c148167daaAf5Cf34f, 0xEB466342C4d449BC9f53A865D5Cb90586f405215]"
      ],
      "transaction": {
        "from": "0x2f321372e8a9755cd2ca6114eb8da32a14f8100b",
        "to": "0xe554fe204af7b99e566fc86ee9b4f34f8364b7b1",
        "gas": "0x3d6ee",
        "value": "0x0",
        "input": "0x625adaf200000000000000000000000000000000000000000000000000000000000000200000000000000000000000000000000000000000000000000000000000000006000000000000000000000000176211869ca2b568f2a7d4ee941e073a821ee1ff0000000000000000000000003aab2285ddcddad8edf438c1bab47e1a9d05a9b4000000000000000000000000636b22bc471c955a8db60f28d4795066a8201fa3000000000000000000000000a219439258ca9da29e9cc4ce5596924745e12b93000000000000000000000000e5d7c2a44ffddf6b295a15c148167daaaf5cf34f000000000000000000000000eb466342c4d449bc9f53a865d5cb90586f405215",
        "nonce": "0xbb",
        "chainId": "0xe708"
      },
      "additionalContracts": [],
      "isFixedGasLimit": false
    }
  ],
  "receipts": [
    {
      "status": "0x1",
      "cumulativeGasUsed": "0x67d54",
      "logs": [],
      "logsBloom": "0x00000000000000000000000000000000000000000000000000000000000000000000000000000000000000000000000000000000000000000000000000000000000000000000000000000000000000000000000000000000000000000000000000000000000000000000000000000000000000000000000000000000000000000000000000000000000000000000000000000000000000000000000000000000000000000000000000000000000000000000000000000000000000000000000000000000000000000000000000000000000000000000000000000000000000000000000000000000000000000000000000000000000000000000000000000000",
      "type": "0x2",
      "transactionHash": "0x7b2858178d1d8415bcadda3cae98addf8bda4bc82e7a907d9b98642e3173d71f",
      "transactionIndex": "0x3",
      "blockHash": "0xb6af3a3f3dbe5a7bc700b4e10c7fe5b8314fb17fc193c271ad79bcac5eee391d",
      "blockNumber": "0xb4390d",
      "gasUsed": "0x2c7a0",
      "effectiveGasPrice": "0x122dee40",
      "from": "0x2f321372e8a9755cd2ca6114eb8da32a14f8100b",
      "to": "0xe554fe204af7b99e566fc86ee9b4f34f8364b7b1",
      "contractAddress": null
    }
  ],
  "libraries": [],
  "pending": [],
  "returns": {},
  "timestamp": 1731098711,
  "chain": 59144,
  "commit": "679b506f"
}