{
  "transactions": [
    {
      "hash": "0x1a9a25fc9e768d3284027375e3ecdead49ccc83d5d2b1131637486a0f68ebdf1",
      "transactionType": "CALL",
      "contractName": null,
      "contractAddress": "0x88a6dbe19f0be172c58a0131c1f98a6a3544e20a",
      "function": "addBridger(uint256,address)",
      "arguments": [
        "42161",
        "0x336597370eDe073D3c3fDD9C16364c1Fd26159dB"
      ],
      "transaction": {
        "from": "0x2f321372e8a9755cd2ca6114eb8da32a14f8100b",
        "to": "0x88a6dbe19f0be172c58a0131c1f98a6a3544e20a",
        "gas": "0xadbb",
        "value": "0x0",
        "input": "0x423296ef000000000000000000000000000000000000000000000000000000000000a4b1000000000000000000000000336597370ede073d3c3fdd9c16364c1fd26159db",
        "nonce": "0x242",
        "chainId": "0x2105"
      },
      "additionalContracts": [],
      "isFixedGasLimit": false
    },
    {
      "hash": "0xcb2a365c7e3e18730b7db0ec52f248725bc18a920e54f41c0f5f1ab00753a009",
      "transactionType": "CALL",
      "contractName": null,
      "contractAddress": "0x88a6dbe19f0be172c58a0131c1f98a6a3544e20a",
      "function": "addBridger(uint256,address)",
      "arguments": [
        "43114",
        "0x336597370eDe073D3c3fDD9C16364c1Fd26159dB"
      ],
      "transaction": {
        "from": "0x2f321372e8a9755cd2ca6114eb8da32a14f8100b",
        "to": "0x88a6dbe19f0be172c58a0131c1f98a6a3544e20a",
        "gas": "0xadbb",
        "value": "0x0",
        "input": "0x423296ef000000000000000000000000000000000000000000000000000000000000a86a000000000000000000000000336597370ede073d3c3fdd9c16364c1fd26159db",
        "nonce": "0x243",
        "chainId": "0x2105"
      },
      "additionalContracts": [],
      "isFixedGasLimit": false
    },
    {
      "hash": "0xe45957a4043388cad7b3a8439e74cc721e13766ebb24568713cb3c12c84ebda4",
      "transactionType": "CALL",
      "contractName": null,
      "contractAddress": "0x88a6dbe19f0be172c58a0131c1f98a6a3544e20a",
      "function": "addBridger(uint256,address)",
      "arguments": [
        "1",
        "0x336597370eDe073D3c3fDD9C16364c1Fd26159dB"
      ],
      "transaction": {
        "from": "0x2f321372e8a9755cd2ca6114eb8da32a14f8100b",
        "to": "0x88a6dbe19f0be172c58a0131c1f98a6a3544e20a",
        "gas": "0xa403",
        "value": "0x0",
        "input": "0x423296ef0000000000000000000000000000000000000000000000000000000000000001000000000000000000000000336597370ede073d3c3fdd9c16364c1fd26159db",
        "nonce": "0x244",
        "chainId": "0x2105"
      },
      "additionalContracts": [],
      "isFixedGasLimit": false
    },
    {
      "hash": "0x92fc5c3f72a361f4e3f3ec7bd699aa6315d844cefb796190a6da110a76a55d8d",
      "transactionType": "CALL",
      "contractName": null,
      "contractAddress": "0x88a6dbe19f0be172c58a0131c1f98a6a3544e20a",
      "function": "addBridger(uint256,address)",
      "arguments": [
        "10",
        "0x336597370eDe073D3c3fDD9C16364c1Fd26159dB"
      ],
      "transaction": {
        "from": "0x2f321372e8a9755cd2ca6114eb8da32a14f8100b",
        "to": "0x88a6dbe19f0be172c58a0131c1f98a6a3544e20a",
        "gas": "0xa403",
        "value": "0x0",
        "input": "0x423296ef000000000000000000000000000000000000000000000000000000000000000a000000000000000000000000336597370ede073d3c3fdd9c16364c1fd26159db",
        "nonce": "0x245",
        "chainId": "0x2105"
      },
      "additionalContracts": [],
      "isFixedGasLimit": false
    },
    {
      "hash": "0x50395efccc50704e9fcdfefe0e053f9acc58a532a35c50523a63ff3c4bb701b2",
      "transactionType": "CALL",
      "contractName": null,
      "contractAddress": "0x88a6dbe19f0be172c58a0131c1f98a6a3544e20a",
      "function": "addBridger(uint256,address)",
      "arguments": [
        "137",
        "0x336597370eDe073D3c3fDD9C16364c1Fd26159dB"
      ],
      "transaction": {
        "from": "0x2f321372e8a9755cd2ca6114eb8da32a14f8100b",
        "to": "0x88a6dbe19f0be172c58a0131c1f98a6a3544e20a",
        "gas": "0xa403",
        "value": "0x0",
        "input": "0x423296ef0000000000000000000000000000000000000000000000000000000000000089000000000000000000000000336597370ede073d3c3fdd9c16364c1fd26159db",
        "nonce": "0x246",
        "chainId": "0x2105"
      },
      "additionalContracts": [],
      "isFixedGasLimit": false
    },
    {
      "hash": "0xe1f6412acb672dd8c1baf27f9bb688b14d615370de04de39bf8731b4e41da901",
      "transactionType": "CALL",
      "contractName": null,
      "contractAddress": "0x88a6dbe19f0be172c58a0131c1f98a6a3544e20a",
      "function": "addBridger(uint256,address)",
      "arguments": [
        "59144",
        "0x76E962CF7659a1da6086C12e2E10071Ed3BEfB6A"
      ],
      "transaction": {
        "from": "0x2f321372e8a9755cd2ca6114eb8da32a14f8100b",
        "to": "0x88a6dbe19f0be172c58a0131c1f98a6a3544e20a",
        "gas": "0xadbb",
        "value": "0x0",
        "input": "0x423296ef000000000000000000000000000000000000000000000000000000000000e70800000000000000000000000076e962cf7659a1da6086c12e2e10071ed3befb6a",
        "nonce": "0x247",
        "chainId": "0x2105"
      },
      "additionalContracts": [],
      "isFixedGasLimit": false
    }
  ],
  "receipts": [
    {
      "status": "0x1",
      "cumulativeGasUsed": "0x183f875",
      "logs": [
        {
          "address": "0x88a6dbe19f0be172c58a0131c1f98a6a3544e20a",
          "topics": [
            "0x2ab987718e0796aca8c6b86990f9a81e08821c9e2e78346d4aaefbdbc3139187",
            "0x000000000000000000000000000000000000000000000000000000000000a4b1"
          ],
          "data": "0x000000000000000000000000336597370ede073d3c3fdd9c16364c1fd26159db",
          "blockHash": "0x0ef248044a335aa333859a11b0ee1569c89a9451668b05ce384fe0b08745ee45",
          "blockNumber": "0x13fb259",
          "transactionHash": "0x1a9a25fc9e768d3284027375e3ecdead49ccc83d5d2b1131637486a0f68ebdf1",
          "transactionIndex": "0x71",
          "logIndex": "0x175",
          "removed": false
        }
      ],
      "logsBloom": "0x00000000000000000000000000000000000000000000000000000000000000000000000000000000000000000000000000000000000000000000000000000000000000000000000010000008000000000000000000000020000000000000000000000000000004000000000000000000000000000010000000000000000000000000000000000000000000000000000000000000000000000000000000000000000000000000000000000000000000000000000000000000000000000000000000000000000000010000000000000000000000000000004000000000000000000000000000000000000000000000100000000000400000000000000000000000",
      "type": "0x2",
      "transactionHash": "0x1a9a25fc9e768d3284027375e3ecdead49ccc83d5d2b1131637486a0f68ebdf1",
      "transactionIndex": "0x71",
      "blockHash": "0x0ef248044a335aa333859a11b0ee1569c89a9451668b05ce384fe0b08745ee45",
      "blockNumber": "0x13fb259",
      "gasUsed": "0x76cb",
      "effectiveGasPrice": "0x3a9c6a",
      "from": "0x2f321372e8a9755cd2ca6114eb8da32a14f8100b",
      "to": "0x88a6dbe19f0be172c58a0131c1f98a6a3544e20a",
      "contractAddress": null,
      "l1BaseFeeScalar": "0x8dd",
      "l1BlobBaseFee": "0x1",
      "l1BlobBaseFeeScalar": "0x101c12",
      "l1Fee": "0x766649482",
      "l1GasPrice": "0x209d05660",
      "l1GasUsed": "0x640"
    },
    {
      "status": "0x1",
      "cumulativeGasUsed": "0x1846f40",
      "logs": [
        {
          "address": "0x88a6dbe19f0be172c58a0131c1f98a6a3544e20a",
          "topics": [
            "0x2ab987718e0796aca8c6b86990f9a81e08821c9e2e78346d4aaefbdbc3139187",
            "0x000000000000000000000000000000000000000000000000000000000000a86a"
          ],
          "data": "0x000000000000000000000000336597370ede073d3c3fdd9c16364c1fd26159db",
          "blockHash": "0x0ef248044a335aa333859a11b0ee1569c89a9451668b05ce384fe0b08745ee45",
          "blockNumber": "0x13fb259",
          "transactionHash": "0xcb2a365c7e3e18730b7db0ec52f248725bc18a920e54f41c0f5f1ab00753a009",
          "transactionIndex": "0x72",
          "logIndex": "0x176",
          "removed": false
        }
      ],
      "logsBloom": "0x00000000100000000000000000000000000000000000000000000000000000000000000000000000000000000000000000000000000000000000000000000000000000000000000010000008000000000000000000000020000000000000000000000000000004000000000000000000000000000010000000000000000000000000000000000000000000000000000000000000000000000000000000000000000000000000000000000000000000000000000000000000000000000000000000000000000000000000000000000000000000000000000000000000000000000000000000000000000000000000000000000000402000000000000000000080",
      "type": "0x2",
      "transactionHash": "0xcb2a365c7e3e18730b7db0ec52f248725bc18a920e54f41c0f5f1ab00753a009",
      "transactionIndex": "0x72",
      "blockHash": "0x0ef248044a335aa333859a11b0ee1569c89a9451668b05ce384fe0b08745ee45",
      "blockNumber": "0x13fb259",
      "gasUsed": "0x76cb",
      "effectiveGasPrice": "0x3a9c6a",
      "from": "0x2f321372e8a9755cd2ca6114eb8da32a14f8100b",
      "to": "0x88a6dbe19f0be172c58a0131c1f98a6a3544e20a",
      "contractAddress": null,
      "l1BaseFeeScalar": "0x8dd",
      "l1BlobBaseFee": "0x1",
      "l1BlobBaseFeeScalar": "0x101c12",
      "l1Fee": "0x766649482",
      "l1GasPrice": "0x209d05660",
      "l1GasUsed": "0x640"
    },
    {
      "status": "0x1",
      "cumulativeGasUsed": "0x184e5ff",
      "logs": [
        {
          "address": "0x88a6dbe19f0be172c58a0131c1f98a6a3544e20a",
          "topics": [
            "0x2ab987718e0796aca8c6b86990f9a81e08821c9e2e78346d4aaefbdbc3139187",
            "0x0000000000000000000000000000000000000000000000000000000000000001"
          ],
          "data": "0x000000000000000000000000336597370ede073d3c3fdd9c16364c1fd26159db",
          "blockHash": "0x0ef248044a335aa333859a11b0ee1569c89a9451668b05ce384fe0b08745ee45",
          "blockNumber": "0x13fb259",
          "transactionHash": "0xe45957a4043388cad7b3a8439e74cc721e13766ebb24568713cb3c12c84ebda4",
          "transactionIndex": "0x73",
          "logIndex": "0x177",
          "removed": false
        }
      ],
      "logsBloom": "0x00000000000000000000000000000000000000000000000000000000000000000000000000000000000000000000000000000000000000000000000000040000000000000000000010000008000000000000000000040020000000000000000000000000000004000000000000000000000000000010000000000000000000000000000000000000000000000000000000000000000000000000000000000000000000000000000000000000000000000000000000000000000000000000000000000000000000000000000000000000000000000000000000000000000040000000000000000000000000000000000000000000400000000000000000000000",
      "type": "0x2",
      "transactionHash": "0xe45957a4043388cad7b3a8439e74cc721e13766ebb24568713cb3c12c84ebda4",
      "transactionIndex": "0x73",
      "blockHash": "0x0ef248044a335aa333859a11b0ee1569c89a9451668b05ce384fe0b08745ee45",
      "blockNumber": "0x13fb259",
      "gasUsed": "0x76bf",
      "effectiveGasPrice": "0x3a9c6a",
      "from": "0x2f321372e8a9755cd2ca6114eb8da32a14f8100b",
      "to": "0x88a6dbe19f0be172c58a0131c1f98a6a3544e20a",
      "contractAddress": null,
      "l1BaseFeeScalar": "0x8dd",
      "l1BlobBaseFee": "0x1",
      "l1BlobBaseFeeScalar": "0x101c12",
      "l1Fee": "0x766649482",
      "l1GasPrice": "0x209d05660",
      "l1GasUsed": "0x640"
    },
    {
      "status": "0x1",
      "cumulativeGasUsed": "0x1855cbe",
      "logs": [
        {
          "address": "0x88a6dbe19f0be172c58a0131c1f98a6a3544e20a",
          "topics": [
            "0x2ab987718e0796aca8c6b86990f9a81e08821c9e2e78346d4aaefbdbc3139187",
            "0x000000000000000000000000000000000000000000000000000000000000000a"
          ],
          "data": "0x000000000000000000000000336597370ede073d3c3fdd9c16364c1fd26159db",
          "blockHash": "0x0ef248044a335aa333859a11b0ee1569c89a9451668b05ce384fe0b08745ee45",
          "blockNumber": "0x13fb259",
          "transactionHash": "0x92fc5c3f72a361f4e3f3ec7bd699aa6315d844cefb796190a6da110a76a55d8d",
          "transactionIndex": "0x74",
          "logIndex": "0x178",
          "removed": false
        }
      ],
      "logsBloom": "0x00000000000000000000000000000000000000000000000000000000000000000000000000000000000000000000000000000000040000000020000000000000000000000000000010000008000000000000000000000020000000000000000000000000000004000000000000000000000000000010000000000000000000000000000000000000010000000000000000000000000000000000000000000000000000000000000000000000000000000000000000000000000000000000000000000000000000000000000000000000000000000000000000000000000000000000000000000000000000000000000000000000400000000000000000000000",
      "type": "0x2",
      "transactionHash": "0x92fc5c3f72a361f4e3f3ec7bd699aa6315d844cefb796190a6da110a76a55d8d",
      "transactionIndex": "0x74",
      "blockHash": "0x0ef248044a335aa333859a11b0ee1569c89a9451668b05ce384fe0b08745ee45",
      "blockNumber": "0x13fb259",
      "gasUsed": "0x76bf",
      "effectiveGasPrice": "0x3a9c6a",
      "from": "0x2f321372e8a9755cd2ca6114eb8da32a14f8100b",
      "to": "0x88a6dbe19f0be172c58a0131c1f98a6a3544e20a",
      "contractAddress": null,
      "l1BaseFeeScalar": "0x8dd",
      "l1BlobBaseFee": "0x1",
      "l1BlobBaseFeeScalar": "0x101c12",
      "l1Fee": "0x766649482",
      "l1GasPrice": "0x209d05660",
      "l1GasUsed": "0x640"
    },
    {
      "status": "0x1",
      "cumulativeGasUsed": "0x185d37d",
      "logs": [
        {
          "address": "0x88a6dbe19f0be172c58a0131c1f98a6a3544e20a",
          "topics": [
            "0x2ab987718e0796aca8c6b86990f9a81e08821c9e2e78346d4aaefbdbc3139187",
            "0x0000000000000000000000000000000000000000000000000000000000000089"
          ],
          "data": "0x000000000000000000000000336597370ede073d3c3fdd9c16364c1fd26159db",
          "blockHash": "0x0ef248044a335aa333859a11b0ee1569c89a9451668b05ce384fe0b08745ee45",
          "blockNumber": "0x13fb259",
          "transactionHash": "0x50395efccc50704e9fcdfefe0e053f9acc58a532a35c50523a63ff3c4bb701b2",
          "transactionIndex": "0x75",
          "logIndex": "0x179",
          "removed": false
        }
      ],
      "logsBloom": "0x00000000000000000000000000000000000000000000000000000000000000000000000000000000000000000000000000000000000000000000000000000000000000000000000010000008000000000000000000000020000000000000000000000000000004800000000000000000000000000010000000000000000000000400000000000000000000000002000000000000000000000000000000000000000000000000000000000000000000000000000000000000000000000000000000000000000000000000000000000000000000000000000000000000000000000000000000000000000000000000000000000000400000000000000000000000",
      "type": "0x2",
      "transactionHash": "0x50395efccc50704e9fcdfefe0e053f9acc58a532a35c50523a63ff3c4bb701b2",
      "transactionIndex": "0x75",
      "blockHash": "0x0ef248044a335aa333859a11b0ee1569c89a9451668b05ce384fe0b08745ee45",
      "blockNumber": "0x13fb259",
      "gasUsed": "0x76bf",
      "effectiveGasPrice": "0x3a9c6a",
      "from": "0x2f321372e8a9755cd2ca6114eb8da32a14f8100b",
      "to": "0x88a6dbe19f0be172c58a0131c1f98a6a3544e20a",
      "contractAddress": null,
      "l1BaseFeeScalar": "0x8dd",
      "l1BlobBaseFee": "0x1",
      "l1BlobBaseFeeScalar": "0x101c12",
      "l1Fee": "0x766649482",
      "l1GasPrice": "0x209d05660",
      "l1GasUsed": "0x640"
    },
    {
      "status": "0x1",
      "cumulativeGasUsed": "0x1864a48",
      "logs": [
        {
          "address": "0x88a6dbe19f0be172c58a0131c1f98a6a3544e20a",
          "topics": [
            "0x2ab987718e0796aca8c6b86990f9a81e08821c9e2e78346d4aaefbdbc3139187",
            "0x000000000000000000000000000000000000000000000000000000000000e708"
          ],
          "data": "0x00000000000000000000000076e962cf7659a1da6086c12e2e10071ed3befb6a",
          "blockHash": "0x0ef248044a335aa333859a11b0ee1569c89a9451668b05ce384fe0b08745ee45",
          "blockNumber": "0x13fb259",
          "transactionHash": "0xe1f6412acb672dd8c1baf27f9bb688b14d615370de04de39bf8731b4e41da901",
          "transactionIndex": "0x76",
          "logIndex": "0x17a",
          "removed": false
        }
      ],
      "logsBloom": "0x00000000000000000000000000000000000000000000000000000000000000000000000000000000000000000000000040000000000000000000000000000001000000000000000010000008000000000000000000000020000000000000000000000000000004000000000000000000000000000010000000000000000000000000000000000000000000000000000000000000000000000000000400000000000000000000000000000000000000000000000000000000000000000000000000000000000000000000000000000000000000000000000000000000000000000000000000000000000000000000000000000000400000000000000000000000",
      "type": "0x2",
      "transactionHash": "0xe1f6412acb672dd8c1baf27f9bb688b14d615370de04de39bf8731b4e41da901",
      "transactionIndex": "0x76",
      "blockHash": "0x0ef248044a335aa333859a11b0ee1569c89a9451668b05ce384fe0b08745ee45",
      "blockNumber": "0x13fb259",
      "gasUsed": "0x76cb",
      "effectiveGasPrice": "0x3a9c6a",
      "from": "0x2f321372e8a9755cd2ca6114eb8da32a14f8100b",
      "to": "0x88a6dbe19f0be172c58a0131c1f98a6a3544e20a",
      "contractAddress": null,
      "l1BaseFeeScalar": "0x8dd",
      "l1BlobBaseFee": "0x1",
      "l1BlobBaseFeeScalar": "0x101c12",
      "l1Fee": "0x766649482",
      "l1GasPrice": "0x209d05660",
      "l1GasUsed": "0x640"
    }
  ],
  "libraries": [],
  "pending": [],
  "returns": {},
  "timestamp": 1728692634,
  "chain": 8453,
  "commit": "59ad6c1b"
}