{
  "transactions": [
    {
      "hash": "0x0674a805caa1f4dfcc198316af8295d4621693d8f6e58bf2cbeaf0961d902c66",
      "transactionType": "CALL",
      "contractName": null,
      "contractAddress": "0xc6f00fe98bd441b8b482781dc4721443ec645c0e",
      "function": "grantRelayerEOARole(address)",
      "arguments": [
        "0xA602141Bfc2577A37B43D6156728b09c900b33c3"
      ],
      "transaction": {
        "from": "0x723a63fb50da50a26997fb99a2eb151e4f8c5227",
        "to": "0xc6f00fe98bd441b8b482781dc4721443ec645c0e",
        "gas": "0x10402",
        "value": "0x0",
        "input": "0x0c726e4b000000000000000000000000a602141bfc2577a37b43d6156728b09c900b33c3",
        "nonce": "0x4",
        "chainId": "0x1"
      },
      "additionalContracts": [],
      "isFixedGasLimit": false
    }
  ],
  "receipts": [
    {
      "status": "0x1",
      "cumulativeGasUsed": "0x18b9e5",
      "logs": [
        {
          "address": "0xc6f00fe98bd441b8b482781dc4721443ec645c0e",
          "topics": [
            "0x2f8788117e7eff1d82e926ec794901d17c78024a50270940304540a733656f0d",
            "0x6880b0695dc1781908e2dac98c22ee7d9e1868075c008992d15588919f503af2",
            "0x000000000000000000000000a602141bfc2577a37b43d6156728b09c900b33c3",
            "0x000000000000000000000000723a63fb50da50a26997fb99a2eb151e4f8c5227"
          ],
          "data": "0x",
          "blockHash": "0x5981fb77903662b35e3679834960877288ed2a9663573aa952a41628ede430a5",
          "blockNumber": "0x14550f2",
          "transactionHash": "0x0674a805caa1f4dfcc198316af8295d4621693d8f6e58bf2cbeaf0961d902c66",
          "transactionIndex": "0xd",
          "logIndex": "0x3c",
          "removed": false
        }
      ],
      "logsBloom": "0x00000004000000000000000000000000200000000000000000000000000008000000000000000000000021000000000000000000000000000000000000000000000000000000000000000000002000000000000000000000000000000000000000000000000000000000000000000000001000000000000000000000000080200000000000000000000200000000000000000000000000000000000000008000000000000000000000000000000000000000000000000000001000000000000000000000000000000000000000000000000000000000000100000000000000000000000400000000000000000000000000000000000000000040000000000000",
      "type": "0x2",
      "transactionHash": "0x0674a805caa1f4dfcc198316af8295d4621693d8f6e58bf2cbeaf0961d902c66",
      "transactionIndex": "0xd",
      "blockHash": "0x5981fb77903662b35e3679834960877288ed2a9663573aa952a41628ede430a5",
      "blockNumber": "0x14550f2",
      "gasUsed": "0xbc3f",
      "effectiveGasPrice": "0x35d935e7f",
      "from": "0x723a63fb50da50a26997fb99a2eb151e4f8c5227",
      "to": "0xc6f00fe98bd441b8b482781dc4721443ec645c0e",
      "contractAddress": null
    }
  ],
  "libraries": [],
  "pending": [],
  "returns": {},
  "timestamp": 1733204198,
  "chain": 1,
  "commit": "89abf30f"
}