{
  "transactions": [
    {
      "hash": "0x4e57401f1d627bfb0b05ef3b8720d6a41daa95ec1112b27f5a91b2c10439e5d1",
      "transactionType": "CALL",
      "contractName": null,
      "contractAddress": "0xa0862b0d973e52ee4abacbb6d5f2dc35575fa5ce",
      "function": "createAccount(uint256,address,address,address,uint8,bytes32[2],uint256)",
      "arguments": [
        "84532",
        "0x036CbD53842c5426634e7929541eC2318f3dCF7e",
        "0x6C3D6f8be26913bCECBC582e36Ee12451b8c11C8",
        "0x360019a39c449e55Ea4053dFc05086C8467F3444",
        "0",
        "[0x65a2fa44daad46eab0278703edb6c4dcf5e30b8a9aec09fdc71a56f52aa392e4, 0x4a7a9e4604aa36898209997288e902ac544a555e4b5e0a9efef2b59233f3f437]",
        "0"
      ],
      "transaction": {
        "from": "0x2a6d311394184eeb6df8fbbf58626b085374ffe7",
        "to": "0xa0862b0d973e52ee4abacbb6d5f2dc35575fa5ce",
        "gas": "0x5640a",
        "value": "0x0",
        "input": "0xb75a89270000000000000000000000000000000000000000000000000000000000014a34000000000000000000000000036cbd53842c5426634e7929541ec2318f3dcf7e0000000000000000000000006c3d6f8be26913bcecbc582e36ee12451b8c11c8000000000000000000000000360019a39c449e55ea4053dfc05086c8467f3444000000000000000000000000000000000000000000000000000000000000000065a2fa44daad46eab0278703edb6c4dcf5e30b8a9aec09fdc71a56f52aa392e44a7a9e4604aa36898209997288e902ac544a555e4b5e0a9efef2b59233f3f4370000000000000000000000000000000000000000000000000000000000000000",
        "nonce": "0x4",
        "chainId": "0xaa36a7"
      },
      "additionalContracts": [
        {
          "transactionType": "CREATE2",
          "address": "0xfa28b14604b202880f5946a862076e1fb515fb95",
          "initCode": "0x60406080815261042c908138038061001681610218565b93843982019181818403126102135780516001600160a01b038116808203610213576020838101516001600160401b0394919391858211610213570186601f820112156102135780519061007161006c83610253565b610218565b918083528583019886828401011161021357888661008f930161026e565b813b156101b9577f360894a13ba1a3210667c828492db98dca3e2076cc3735a920a3ca505d382bbc80546001600160a01b031916841790556000927fbc7cd75a20ee27fd9adebab32041f755214dbc6bffa90cc0225b39da2e5c2d3b8480a28051158015906101b2575b61010b575b855160e790816103458239f35b855194606086019081118682101761019e578697849283926101889952602788527f416464726573733a206c6f772d6c6576656c2064656c65676174652063616c6c87890152660819985a5b195960ca1b8a8901525190845af4913d15610194573d9061017a61006c83610253565b91825281943d92013e610291565b508038808080806100fe565b5060609250610291565b634e487b7160e01b84526041600452602484fd5b50826100f9565b855162461bcd60e51b815260048101859052602d60248201527f455243313936373a206e657720696d706c656d656e746174696f6e206973206e60448201526c1bdd08184818dbdb9d1c9858dd609a1b6064820152608490fd5b600080fd5b6040519190601f01601f191682016001600160401b0381118382101761023d57604052565b634e487b7160e01b600052604160045260246000fd5b6001600160401b03811161023d57601f01601f191660200190565b60005b8381106102815750506000910152565b8181015183820152602001610271565b919290156102f357508151156102a5575090565b3b156102ae5790565b60405162461bcd60e51b815260206004820152601d60248201527f416464726573733a2063616c6c20746f206e6f6e2d636f6e74726163740000006044820152606490fd5b8251909150156103065750805190602001fd5b6044604051809262461bcd60e51b825260206004830152610336815180928160248601526020868601910161026e565b601f01601f19168101030190fdfe60806040523615605f5773ffffffffffffffffffffffffffffffffffffffff7f360894a13ba1a3210667c828492db98dca3e2076cc3735a920a3ca505d382bbc54166000808092368280378136915af43d82803e15605b573d90f35b3d90fd5b73ffffffffffffffffffffffffffffffffffffffff7f360894a13ba1a3210667c828492db98dca3e2076cc3735a920a3ca505d382bbc54166000808092368280378136915af43d82803e15605b573d90f3fea2646970667358221220158784be3977284c66ab52bddfe54aa3bfc1cf4479cde7402b1c99925e2e6dfb64736f6c634300081500330000000000000000000000001d4fe883a24711a2cbddd6e9b26a1bd8c15d6cae000000000000000000000000000000000000000000000000000000000000004000000000000000000000000000000000000000000000000000000000000000e45445c7940000000000000000000000000000000000000000000000000000000000014a34000000000000000000000000036cbd53842c5426634e7929541ec2318f3dcf7e0000000000000000000000006c3d6f8be26913bcecbc582e36ee12451b8c11c8000000000000000000000000360019a39c449e55ea4053dfc05086c8467f3444000000000000000000000000000000000000000000000000000000000000000065a2fa44daad46eab0278703edb6c4dcf5e30b8a9aec09fdc71a56f52aa392e44a7a9e4604aa36898209997288e902ac544a555e4b5e0a9efef2b59233f3f43700000000000000000000000000000000000000000000000000000000"
        }
      ],
      "isFixedGasLimit": false
    }
  ],
  "receipts": [
    {
      "status": "0x1",
      "cumulativeGasUsed": "0xb7dd64",
      "logs": [
        {
          "address": "0xfa28b14604b202880f5946a862076e1fb515fb95",
          "topics": [
            "0xbc7cd75a20ee27fd9adebab32041f755214dbc6bffa90cc0225b39da2e5c2d3b",
            "0x0000000000000000000000001d4fe883a24711a2cbddd6e9b26a1bd8c15d6cae"
          ],
          "data": "0x",
          "blockHash": "0x51dad048c067c4d19d0e72aa1129ed2970d6a579fe03b9cb0f82ebfb3436bbdb",
          "blockNumber": "0x5fb971",
          "transactionHash": "0x4e57401f1d627bfb0b05ef3b8720d6a41daa95ec1112b27f5a91b2c10439e5d1",
          "transactionIndex": "0x5c",
          "logIndex": "0x98",
          "removed": false
        },
        {
          "address": "0xfa28b14604b202880f5946a862076e1fb515fb95",
          "topics": [
            "0xbfef236e73ffbf959edeabcdad74646f8e543e5dc26b0aec8d829ee587a40809",
            "0x0000000000000000000000005ff137d4b0fdcd49dca30c7cf57e578a026d2789"
          ],
          "data": "0x0000000000000000000000000000000000000000000000000000000000014a34000000000000000000000000036cbd53842c5426634e7929541ec2318f3dcf7e0000000000000000000000006c3d6f8be26913bcecbc582e36ee12451b8c11c8000000000000000000000000360019a39c449e55ea4053dfc05086c8467f3444",
          "blockHash": "0x51dad048c067c4d19d0e72aa1129ed2970d6a579fe03b9cb0f82ebfb3436bbdb",
          "blockNumber": "0x5fb971",
          "transactionHash": "0x4e57401f1d627bfb0b05ef3b8720d6a41daa95ec1112b27f5a91b2c10439e5d1",
          "transactionIndex": "0x5c",
          "logIndex": "0x99",
          "removed": false
        },
        {
          "address": "0xfa28b14604b202880f5946a862076e1fb515fb95",
          "topics": [
            "0x7f26b83ff96e1f2b6a682f133852f6798a09c465da95921460cefb3847402498"
          ],
          "data": "0x0000000000000000000000000000000000000000000000000000000000000001",
          "blockHash": "0x51dad048c067c4d19d0e72aa1129ed2970d6a579fe03b9cb0f82ebfb3436bbdb",
          "blockNumber": "0x5fb971",
          "transactionHash": "0x4e57401f1d627bfb0b05ef3b8720d6a41daa95ec1112b27f5a91b2c10439e5d1",
          "transactionIndex": "0x5c",
          "logIndex": "0x9a",
          "removed": false
        }
      ],
      "logsBloom": "0x00000000000000000000000000000000400000000040000000000000000000002010000000000000000000000000000000000000000001000000000000000000000000000000000001000000000002000000000000000000002000000000000000000000000000000000000000000000002000000000004000800000000000008000000000000000000000000000000000000000000080000000000000000000000000000000000000000001000400000000000000000000000002000000000000000020000000000000000000040000000000000000000000000000000000000000000000000000000000000000000000000000000000000000000000000000",
      "type": "0x2",
      "transactionHash": "0x4e57401f1d627bfb0b05ef3b8720d6a41daa95ec1112b27f5a91b2c10439e5d1",
      "transactionIndex": "0x5c",
      "blockHash": "0x51dad048c067c4d19d0e72aa1129ed2970d6a579fe03b9cb0f82ebfb3436bbdb",
      "blockNumber": "0x5fb971",
      "gasUsed": "0x3e77a",
      "effectiveGasPrice": "0x16061bdc0",
      "from": "0x2a6d311394184eeb6df8fbbf58626b085374ffe7",
      "to": "0xa0862b0d973e52ee4abacbb6d5f2dc35575fa5ce",
      "contractAddress": null
    }
  ],
  "libraries": [],
  "pending": [],
  "returns": {},
  "timestamp": 1720486663,
  "chain": 11155111,
  "commit": "3b276e90"
}