{
  "transactions": [
    {
      "hash": "0x01c3f2abf8a95ec940a4974d6da727f56adf2b947062a6578f4c0c1e714ddbfe",
      "transactionType": "CALL",
      "contractName": null,
      "contractAddress": "0x6391426be3228106f8576550d25b54bcb1306f30",
      "function": "createAccount(uint256,address,address,address,uint8,bytes32[2],uint256)",
      "arguments": [
        "8453",
        "0x833589fCD6eDb6E08f4c7C32D4f71b54bdA02913",
        "0x52A7Fb58f1F26fd57B4a3aAE55d6c51a38A73610",
        "0x97DA4FaA21DA8bab9b0724B854Bd43250F25FF58",
        "0",
        "[0x65a2fa44daad46eab0278703edb6c4dcf5e30b8a9aec09fdc71a56f52aa392e4, 0x4a7a9e4604aa36898209997288e902ac544a555e4b5e0a9efef2b59233f3f437]",
        "0"
      ],
      "transaction": {
        "from": "0x2a6d311394184eeb6df8fbbf58626b085374ffe7",
        "to": "0x6391426be3228106f8576550d25b54bcb1306f30",
        "gas": "0x4f8c1",
        "value": "0x0",
        "input": "0xb75a89270000000000000000000000000000000000000000000000000000000000002105000000000000000000000000833589fcd6edb6e08f4c7c32d4f71b54bda0291300000000000000000000000052a7fb58f1f26fd57b4a3aae55d6c51a38a7361000000000000000000000000097da4faa21da8bab9b0724b854bd43250f25ff58000000000000000000000000000000000000000000000000000000000000000065a2fa44daad46eab0278703edb6c4dcf5e30b8a9aec09fdc71a56f52aa392e44a7a9e4604aa36898209997288e902ac544a555e4b5e0a9efef2b59233f3f4370000000000000000000000000000000000000000000000000000000000000000",
        "nonce": "0x1f",
        "chainId": "0x89"
      },
      "additionalContracts": [
        {
          "transactionType": "CREATE2",
          "address": "0xf65784430a9af703fcb22465afb9304bf1897f30",
          "initCode": "0x60806040526102a88038038061001481610168565b92833981016040828203126101645781516001600160a01b03811692909190838303610164576020810151906001600160401b03821161016457019281601f8501121561016457835161006e610069826101a1565b610168565b9481865260208601936020838301011161016457815f926020809301865e86010152823b15610152577f360894a13ba1a3210667c828492db98dca3e2076cc3735a920a3ca505d382bbc80546001600160a01b031916821790557fbc7cd75a20ee27fd9adebab32041f755214dbc6bffa90cc0225b39da2e5c2d3b5f80a282511561013a575f8091610122945190845af43d15610132573d91610113610069846101a1565b9283523d5f602085013e6101bc565b505b604051608d908161021b8239f35b6060916101bc565b50505034156101245763b398979f60e01b5f5260045ffd5b634c9c8ce360e01b5f5260045260245ffd5b5f80fd5b6040519190601f01601f191682016001600160401b0381118382101761018d57604052565b634e487b7160e01b5f52604160045260245ffd5b6001600160401b03811161018d57601f01601f191660200190565b906101e057508051156101d157805190602001fd5b63d6bda27560e01b5f5260045ffd5b81511580610211575b6101f1575090565b639996b31560e01b5f9081526001600160a01b0391909116600452602490fd5b50803b156101e956fe60806040525f8073ffffffffffffffffffffffffffffffffffffffff7f360894a13ba1a3210667c828492db98dca3e2076cc3735a920a3ca505d382bbc5416368280378136915af43d5f803e156053573d5ff35b3d5ffdfea264697066735822122027a9d44be0d6d18cf638c81733892ec9c2fa654f1b068c13dc775a93090c072864736f6c634300081a00330000000000000000000000004022459d5ddf793ead9e7bbcae8fcd9c9829882d000000000000000000000000000000000000000000000000000000000000004000000000000000000000000000000000000000000000000000000000000000e45445c7940000000000000000000000000000000000000000000000000000000000002105000000000000000000000000833589fcd6edb6e08f4c7c32d4f71b54bda0291300000000000000000000000052a7fb58f1f26fd57b4a3aae55d6c51a38a7361000000000000000000000000097da4faa21da8bab9b0724b854bd43250f25ff58000000000000000000000000000000000000000000000000000000000000000065a2fa44daad46eab0278703edb6c4dcf5e30b8a9aec09fdc71a56f52aa392e44a7a9e4604aa36898209997288e902ac544a555e4b5e0a9efef2b59233f3f43700000000000000000000000000000000000000000000000000000000"
        }
      ],
      "isFixedGasLimit": false
    }
  ],
  "receipts": [
    {
      "status": "0x1",
      "cumulativeGasUsed": "0x79e375",
      "logs": [
        {
          "address": "0xf65784430a9af703fcb22465afb9304bf1897f30",
          "topics": [
            "0xbc7cd75a20ee27fd9adebab32041f755214dbc6bffa90cc0225b39da2e5c2d3b",
            "0x0000000000000000000000004022459d5ddf793ead9e7bbcae8fcd9c9829882d"
          ],
          "data": "0x",
          "blockHash": "0xc98809c5aa4a78c4cfcd6d35340bcc7d4124f4df28d3506ed15f819903f5011e",
          "blockNumber": "0x3a99b8e",
          "transactionHash": "0x01c3f2abf8a95ec940a4974d6da727f56adf2b947062a6578f4c0c1e714ddbfe",
          "transactionIndex": "0x2c",
          "logIndex": "0xbc",
          "removed": false
        },
        {
          "address": "0xf65784430a9af703fcb22465afb9304bf1897f30",
          "topics": [
            "0xbfef236e73ffbf959edeabcdad74646f8e543e5dc26b0aec8d829ee587a40809",
            "0x0000000000000000000000000000000071727de22e5e9d8baf0edac6f37da032"
          ],
          "data": "0x0000000000000000000000000000000000000000000000000000000000002105000000000000000000000000833589fcd6edb6e08f4c7c32d4f71b54bda0291300000000000000000000000052a7fb58f1f26fd57b4a3aae55d6c51a38a7361000000000000000000000000097da4faa21da8bab9b0724b854bd43250f25ff58",
          "blockHash": "0xc98809c5aa4a78c4cfcd6d35340bcc7d4124f4df28d3506ed15f819903f5011e",
          "blockNumber": "0x3a99b8e",
          "transactionHash": "0x01c3f2abf8a95ec940a4974d6da727f56adf2b947062a6578f4c0c1e714ddbfe",
          "transactionIndex": "0x2c",
          "logIndex": "0xbd",
          "removed": false
        },
        {
          "address": "0xf65784430a9af703fcb22465afb9304bf1897f30",
          "topics": [
            "0xc7f505b2f371ae2175ee4913f4499e1f2633a7b5936321eed1cdaeb6115181d2"
          ],
          "data": "0x0000000000000000000000000000000000000000000000000000000000000001",
          "blockHash": "0xc98809c5aa4a78c4cfcd6d35340bcc7d4124f4df28d3506ed15f819903f5011e",
          "blockNumber": "0x3a99b8e",
          "transactionHash": "0x01c3f2abf8a95ec940a4974d6da727f56adf2b947062a6578f4c0c1e714ddbfe",
          "transactionIndex": "0x2c",
          "logIndex": "0xbe",
          "removed": false
        },
        {
          "address": "0x6391426be3228106f8576550d25b54bcb1306f30",
          "topics": [
            "0x3b4a52b4f1214e1ed54eeb9ff93287ccb493aaf267942290cc86b18a85c92867"
          ],
          "data": "0x000000000000000000000000f65784430a9af703fcb22465afb9304bf1897f300000000000000000000000000000000000000000000000000000000000002105000000000000000000000000833589fcd6edb6e08f4c7c32d4f71b54bda0291300000000000000000000000052a7fb58f1f26fd57b4a3aae55d6c51a38a7361000000000000000000000000097da4faa21da8bab9b0724b854bd43250f25ff58000000000000000000000000000000000000000000000000000000000000000065a2fa44daad46eab0278703edb6c4dcf5e30b8a9aec09fdc71a56f52aa392e44a7a9e4604aa36898209997288e902ac544a555e4b5e0a9efef2b59233f3f4370000000000000000000000000000000000000000000000000000000000000000",
          "blockHash": "0xc98809c5aa4a78c4cfcd6d35340bcc7d4124f4df28d3506ed15f819903f5011e",
          "blockNumber": "0x3a99b8e",
          "transactionHash": "0x01c3f2abf8a95ec940a4974d6da727f56adf2b947062a6578f4c0c1e714ddbfe",
          "transactionIndex": "0x2c",
          "logIndex": "0xbf",
          "removed": false
        },
        {
          "address": "0x0000000000000000000000000000000000001010",
          "topics": [
            "0x4dfe1bbbcf077ddc3e01291eea2d5c70c2b422b415d95645b9adcfd678cb1d63",
            "0x0000000000000000000000000000000000000000000000000000000000001010",
            "0x0000000000000000000000002a6d311394184eeb6df8fbbf58626b085374ffe7",
            "0x0000000000000000000000001b0840519a581f3779d0a10b77593d6d3894a76a"
          ],
          "data": "0x0000000000000000000000000000000000000000000000000019252246fb6a8c0000000000000000000000000000000000000000000000000bec81e2a54949ff00000000000000000000000000000000000000000000419ef516bc510ee467610000000000000000000000000000000000000000000000000bd35cc05e4ddf7300000000000000000000000000000000000000000000419ef52fe17355dfd1ed",
          "blockHash": "0xc98809c5aa4a78c4cfcd6d35340bcc7d4124f4df28d3506ed15f819903f5011e",
          "blockNumber": "0x3a99b8e",
          "transactionHash": "0x01c3f2abf8a95ec940a4974d6da727f56adf2b947062a6578f4c0c1e714ddbfe",
          "transactionIndex": "0x2c",
          "logIndex": "0xc0",
          "removed": false
        }
      ],
      "logsBloom": "0x00000000000000000000000001020000400000000000000000000000000000002400000000000000000000000000000020008000000000000000000000000000010400000000000001000000000002800002010000000000000100000800200000000000000000000000000000000000002000000000000080000000000000000000000000008000000800000000000020000020000080000000000000010000200008000000000000000000000000000000000000000000000000000000004000000020000000000001000000000000000000000004000000100000040000000000000000000000000000100000400000800000000000000100000000100000",
      "type": "0x2",
      "transactionHash": "0x01c3f2abf8a95ec940a4974d6da727f56adf2b947062a6578f4c0c1e714ddbfe",
      "transactionIndex": "0x2c",
      "blockHash": "0xc98809c5aa4a78c4cfcd6d35340bcc7d4124f4df28d3506ed15f819903f5011e",
      "blockNumber": "0x3a99b8e",
      "gasUsed": "0x39974",
      "effectiveGasPrice": "0x6fc60b523",
      "from": "0x2a6d311394184eeb6df8fbbf58626b085374ffe7",
      "to": "0x6391426be3228106f8576550d25b54bcb1306f30",
      "contractAddress": null
    }
  ],
  "libraries": [],
  "pending": [],
  "returns": {},
  "timestamp": 1725525843,
  "chain": 137,
  "commit": "6993b1d3"
}