{
  "transactions": [
    {
      "hash": "0x8e33692d37d12d7e81430d79c088066f261e528d668298ed6c574f0c319e9758",
      "transactionType": "CALL",
      "contractName": null,
      "contractAddress": "0x9fbb3df7c40da2e5a0de984ffe2ccb7c47cd0abf",
      "function": "deploy(bytes32,bytes)",
      "arguments": [
        "0x52b9c94b65f889345ec8c575d402b506067c81df7fabe5d18f74ef25cf1f4680",
        "0x60806040526102a88038038061001481610168565b92833981016040828203126101645781516001600160a01b03811692909190838303610164576020810151906001600160401b03821161016457019281601f8501121561016457835161006e610069826101a1565b610168565b9481865260208601936020838301011161016457815f926020809301865e86010152823b15610152577f360894a13ba1a3210667c828492db98dca3e2076cc3735a920a3ca505d382bbc80546001600160a01b031916821790557fbc7cd75a20ee27fd9adebab32041f755214dbc6bffa90cc0225b39da2e5c2d3b5f80a282511561013a575f8091610122945190845af43d15610132573d91610113610069846101a1565b9283523d5f602085013e6101bc565b505b604051608d908161021b8239f35b6060916101bc565b50505034156101245763b398979f60e01b5f5260045ffd5b634c9c8ce360e01b5f5260045260245ffd5b5f80fd5b6040519190601f01601f191682016001600160401b0381118382101761018d57604052565b634e487b7160e01b5f52604160045260245ffd5b6001600160401b03811161018d57601f01601f191660200190565b906101e057508051156101d157805190602001fd5b63d6bda27560e01b5f5260045ffd5b81511580610211575b6101f1575090565b639996b31560e01b5f9081526001600160a01b0391909116600452602490fd5b50803b156101e956fe60806040525f8073ffffffffffffffffffffffffffffffffffffffff7f360894a13ba1a3210667c828492db98dca3e2076cc3735a920a3ca505d382bbc5416368280378136915af43d5f803e156053573d5ff35b3d5ffdfea264697066735822122027a9d44be0d6d18cf638c81733892ec9c2fa654f1b068c13dc775a93090c072864736f6c634300081a00330000000000000000000000008cba203fc4c8ab2a75607f4026805ca592327bf000000000000000000000000000000000000000000000000000000000000000400000000000000000000000000000000000000000000000000000000000000364da851f49000000000000000000000000eeee8b1371f1664b7c2a8c111d6062b6576fa6f00000000000000000000000009f3b8679c73c2fef8b59b4f3444d4e156fb70aa500000000000000000000000092275f59ceb72dd132de54f726f767ab6ba9559f00000000000000000000000000000000000000000000000000000000000000c000000000000000000000000000000000000000000000000000000000000001a0000000000000000000000000000000000000000000000000000000000000028000000000000000000000000000000000000000000000000000000000000000060000000000000000000000000000000000000000000000000000000000aa36a7000000000000000000000000000000000000000000000000000000000000a8690000000000000000000000000000000000000000000000000000000000aa37dc0000000000000000000000000000000000000000000000000000000000066eee0000000000000000000000000000000000000000000000000000000000014a340000000000000000000000000000000000000000000000000000000000013882000000000000000000000000000000000000000000000000000000000000000600000000000000000000000000000000000000000000000000000000000000000000000000000000000000000000000000000000000000000000000000000001000000000000000000000000000000000000000000000000000000000000000200000000000000000000000000000000000000000000000000000000000000030000000000000000000000000000000000000000000000000000000000000006000000000000000000000000000000000000000000000000000000000000000700000000000000000000000000000000000000000000000000000000000000060000000000000000000000001c7d4b196cb0c7b01d743fbc6116a902379c72380000000000000000000000005425890298aed601595a70ab815c96711a31bc650000000000000000000000005fd84259d66cd46123540766be93dfe6d43130d700000000000000000000000075faf114eafb1bdbe2f0316df893fd58ce46aa4d000000000000000000000000036cbd53842c5426634e7929541ec2318f3dcf7e00000000000000000000000041e94eb019c0762f9bfcf9fb1e58725bfb0e758200000000000000000000000000000000000000000000000000000000"
      ],
      "transaction": {
        "from": "0x2a6d311394184eeb6df8fbbf58626b085374ffe7",
        "to": "0x9fbb3df7c40da2e5a0de984ffe2ccb7c47cd0abf",
        "gas": "0x8f377",
        "value": "0x0",
        "input": "0xcdcb760a52b9c94b65f889345ec8c575d402b506067c81df7fabe5d18f74ef25cf1f46800000000000000000000000000000000000000000000000000000000000000040000000000000000000000000000000000000000000000000000000000000068860806040526102a88038038061001481610168565b92833981016040828203126101645781516001600160a01b03811692909190838303610164576020810151906001600160401b03821161016457019281601f8501121561016457835161006e610069826101a1565b610168565b9481865260208601936020838301011161016457815f926020809301865e86010152823b15610152577f360894a13ba1a3210667c828492db98dca3e2076cc3735a920a3ca505d382bbc80546001600160a01b031916821790557fbc7cd75a20ee27fd9adebab32041f755214dbc6bffa90cc0225b39da2e5c2d3b5f80a282511561013a575f8091610122945190845af43d15610132573d91610113610069846101a1565b9283523d5f602085013e6101bc565b505b604051608d908161021b8239f35b6060916101bc565b50505034156101245763b398979f60e01b5f5260045ffd5b634c9c8ce360e01b5f5260045260245ffd5b5f80fd5b6040519190601f01601f191682016001600160401b0381118382101761018d57604052565b634e487b7160e01b5f52604160045260245ffd5b6001600160401b03811161018d57601f01601f191660200190565b906101e057508051156101d157805190602001fd5b63d6bda27560e01b5f5260045ffd5b81511580610211575b6101f1575090565b639996b31560e01b5f9081526001600160a01b0391909116600452602490fd5b50803b156101e956fe60806040525f8073ffffffffffffffffffffffffffffffffffffffff7f360894a13ba1a3210667c828492db98dca3e2076cc3735a920a3ca505d382bbc5416368280378136915af43d5f803e156053573d5ff35b3d5ffdfea264697066735822122027a9d44be0d6d18cf638c81733892ec9c2fa654f1b068c13dc775a93090c072864736f6c634300081a00330000000000000000000000008cba203fc4c8ab2a75607f4026805ca592327bf000000000000000000000000000000000000000000000000000000000000000400000000000000000000000000000000000000000000000000000000000000364da851f49000000000000000000000000eeee8b1371f1664b7c2a8c111d6062b6576fa6f00000000000000000000000009f3b8679c73c2fef8b59b4f3444d4e156fb70aa500000000000000000000000092275f59ceb72dd132de54f726f767ab6ba9559f00000000000000000000000000000000000000000000000000000000000000c000000000000000000000000000000000000000000000000000000000000001a0000000000000000000000000000000000000000000000000000000000000028000000000000000000000000000000000000000000000000000000000000000060000000000000000000000000000000000000000000000000000000000aa36a7000000000000000000000000000000000000000000000000000000000000a8690000000000000000000000000000000000000000000000000000000000aa37dc0000000000000000000000000000000000000000000000000000000000066eee0000000000000000000000000000000000000000000000000000000000014a340000000000000000000000000000000000000000000000000000000000013882000000000000000000000000000000000000000000000000000000000000000600000000000000000000000000000000000000000000000000000000000000000000000000000000000000000000000000000000000000000000000000000001000000000000000000000000000000000000000000000000000000000000000200000000000000000000000000000000000000000000000000000000000000030000000000000000000000000000000000000000000000000000000000000006000000000000000000000000000000000000000000000000000000000000000700000000000000000000000000000000000000000000000000000000000000060000000000000000000000001c7d4b196cb0c7b01d743fbc6116a902379c72380000000000000000000000005425890298aed601595a70ab815c96711a31bc650000000000000000000000005fd84259d66cd46123540766be93dfe6d43130d700000000000000000000000075faf114eafb1bdbe2f0316df893fd58ce46aa4d000000000000000000000000036cbd53842c5426634e7929541ec2318f3dcf7e00000000000000000000000041e94eb019c0762f9bfcf9fb1e58725bfb0e758200000000000000000000000000000000000000000000000000000000000000000000000000000000000000000000000000000000",
        "nonce": "0x73f",
        "chainId": "0x14a34"
      },
      "additionalContracts": [
        {
          "transactionType": "CREATE2",
          "address": "0xbb592b37fa4f3f918228cf7572fe2b86816b877f",
          "initCode": "0x67363d3d37363d34f03d5260086018f3"
        },
        {
          "transactionType": "CREATE",
          "address": "0x97da4faa21da8bab9b0724b854bd43250f25ff58",
          "initCode": "0x60806040526102a88038038061001481610168565b92833981016040828203126101645781516001600160a01b03811692909190838303610164576020810151906001600160401b03821161016457019281601f8501121561016457835161006e610069826101a1565b610168565b9481865260208601936020838301011161016457815f926020809301865e86010152823b15610152577f360894a13ba1a3210667c828492db98dca3e2076cc3735a920a3ca505d382bbc80546001600160a01b031916821790557fbc7cd75a20ee27fd9adebab32041f755214dbc6bffa90cc0225b39da2e5c2d3b5f80a282511561013a575f8091610122945190845af43d15610132573d91610113610069846101a1565b9283523d5f602085013e6101bc565b505b604051608d908161021b8239f35b6060916101bc565b50505034156101245763b398979f60e01b5f5260045ffd5b634c9c8ce360e01b5f5260045260245ffd5b5f80fd5b6040519190601f01601f191682016001600160401b0381118382101761018d57604052565b634e487b7160e01b5f52604160045260245ffd5b6001600160401b03811161018d57601f01601f191660200190565b906101e057508051156101d157805190602001fd5b63d6bda27560e01b5f5260045ffd5b81511580610211575b6101f1575090565b639996b31560e01b5f9081526001600160a01b0391909116600452602490fd5b50803b156101e956fe60806040525f8073ffffffffffffffffffffffffffffffffffffffff7f360894a13ba1a3210667c828492db98dca3e2076cc3735a920a3ca505d382bbc5416368280378136915af43d5f803e156053573d5ff35b3d5ffdfea264697066735822122027a9d44be0d6d18cf638c81733892ec9c2fa654f1b068c13dc775a93090c072864736f6c634300081a00330000000000000000000000008cba203fc4c8ab2a75607f4026805ca592327bf000000000000000000000000000000000000000000000000000000000000000400000000000000000000000000000000000000000000000000000000000000364da851f49000000000000000000000000eeee8b1371f1664b7c2a8c111d6062b6576fa6f00000000000000000000000009f3b8679c73c2fef8b59b4f3444d4e156fb70aa500000000000000000000000092275f59ceb72dd132de54f726f767ab6ba9559f00000000000000000000000000000000000000000000000000000000000000c000000000000000000000000000000000000000000000000000000000000001a0000000000000000000000000000000000000000000000000000000000000028000000000000000000000000000000000000000000000000000000000000000060000000000000000000000000000000000000000000000000000000000aa36a7000000000000000000000000000000000000000000000000000000000000a8690000000000000000000000000000000000000000000000000000000000aa37dc0000000000000000000000000000000000000000000000000000000000066eee0000000000000000000000000000000000000000000000000000000000014a340000000000000000000000000000000000000000000000000000000000013882000000000000000000000000000000000000000000000000000000000000000600000000000000000000000000000000000000000000000000000000000000000000000000000000000000000000000000000000000000000000000000000001000000000000000000000000000000000000000000000000000000000000000200000000000000000000000000000000000000000000000000000000000000030000000000000000000000000000000000000000000000000000000000000006000000000000000000000000000000000000000000000000000000000000000700000000000000000000000000000000000000000000000000000000000000060000000000000000000000001c7d4b196cb0c7b01d743fbc6116a902379c72380000000000000000000000005425890298aed601595a70ab815c96711a31bc650000000000000000000000005fd84259d66cd46123540766be93dfe6d43130d700000000000000000000000075faf114eafb1bdbe2f0316df893fd58ce46aa4d000000000000000000000000036cbd53842c5426634e7929541ec2318f3dcf7e00000000000000000000000041e94eb019c0762f9bfcf9fb1e58725bfb0e758200000000000000000000000000000000000000000000000000000000"
        }
      ],
      "isFixedGasLimit": false
    }
  ],
  "receipts": [
    {
      "status": "0x1",
      "cumulativeGasUsed": "0xc00c0",
      "logs": [
        {
          "address": "0x97da4faa21da8bab9b0724b854bd43250f25ff58",
          "topics": [
            "0xbc7cd75a20ee27fd9adebab32041f755214dbc6bffa90cc0225b39da2e5c2d3b",
            "0x0000000000000000000000008cba203fc4c8ab2a75607f4026805ca592327bf0"
          ],
          "data": "0x",
          "blockHash": "0xa8cb5ad01ae672541de3bdf76ee79348e3340c46eb742a9423caeebbfd7a2667",
          "blockNumber": "0xe2fc73",
          "transactionHash": "0x8e33692d37d12d7e81430d79c088066f261e528d668298ed6c574f0c319e9758",
          "transactionIndex": "0x5",
          "logIndex": "0x5",
          "removed": false
        },
        {
          "address": "0x97da4faa21da8bab9b0724b854bd43250f25ff58",
          "topics": [
            "0x8be0079c531659141344cd1fd0a4f28419497f9722a3daafe3b4186f6b6457e0",
            "0x0000000000000000000000000000000000000000000000000000000000000000",
            "0x000000000000000000000000eeee8b1371f1664b7c2a8c111d6062b6576fa6f0"
          ],
          "data": "0x",
          "blockHash": "0xa8cb5ad01ae672541de3bdf76ee79348e3340c46eb742a9423caeebbfd7a2667",
          "blockNumber": "0xe2fc73",
          "transactionHash": "0x8e33692d37d12d7e81430d79c088066f261e528d668298ed6c574f0c319e9758",
          "transactionIndex": "0x5",
          "logIndex": "0x6",
          "removed": false
        },
        {
          "address": "0x97da4faa21da8bab9b0724b854bd43250f25ff58",
          "topics": [
            "0xc7f505b2f371ae2175ee4913f4499e1f2633a7b5936321eed1cdaeb6115181d2"
          ],
          "data": "0x0000000000000000000000000000000000000000000000000000000000000001",
          "blockHash": "0xa8cb5ad01ae672541de3bdf76ee79348e3340c46eb742a9423caeebbfd7a2667",
          "blockNumber": "0xe2fc73",
          "transactionHash": "0x8e33692d37d12d7e81430d79c088066f261e528d668298ed6c574f0c319e9758",
          "transactionIndex": "0x5",
          "logIndex": "0x7",
          "removed": false
        }
      ],
      "logsBloom": "0x00000000000000000000000000000000400000000000000000800000000000000000000000000000000000000000000000000000000000000000000000000000000000000000000000000000000002000001000000020000000000000000000000000000020000000000000000000800000004000000001100000000000000400000000000000800000802000000000000000000000080000000000000000000000000000000000000000000000000000000000000000000000000000000000000000028000000000000000000000000000000000004000000000000004020000000000000000000000000000000000000000000000000000000000000000000",
      "type": "0x2",
      "transactionHash": "0x8e33692d37d12d7e81430d79c088066f261e528d668298ed6c574f0c319e9758",
      "transactionIndex": "0x5",
      "blockHash": "0xa8cb5ad01ae672541de3bdf76ee79348e3340c46eb742a9423caeebbfd7a2667",
      "blockNumber": "0xe2fc73",
      "gasUsed": "0x61ed1",
      "effectiveGasPrice": "0xf451e",
      "from": "0x2a6d311394184eeb6df8fbbf58626b085374ffe7",
      "to": "0x9fbb3df7c40da2e5a0de984ffe2ccb7c47cd0abf",
      "contractAddress": null,
      "l1BaseFeeScalar": "0x44d",
      "l1BlobBaseFee": "0x11dd11520ad",
      "l1BlobBaseFeeScalar": "0xa118b",
      "l1Fee": "0x29cb809aca5a0",
      "l1GasPrice": "0x1436fc43f0",
      "l1GasUsed": "0x38a0"
    }
  ],
  "libraries": [],
  "pending": [],
  "returns": {},
  "timestamp": 1725519820,
  "chain": 84532,
  "commit": "2502a60f"
}