{
  "transactions": [
    {
      "hash": "0xc1bd344c5f30521f0f17e8bec04611f1063ce06c0adda64100c0a41c77429d21",
      "transactionType": "CALL",
      "contractName": null,
      "contractAddress": "0x9fbb3df7c40da2e5a0de984ffe2ccb7c47cd0abf",
      "function": "deploy(bytes32,bytes)",
      "arguments": [
        "0x52b9c94b65f889345ec8c575d402b506067c81df7fabe5d18f74ef25cf1f4680",
        "0x60806040526102a88038038061001481610168565b92833981016040828203126101645781516001600160a01b03811692909190838303610164576020810151906001600160401b03821161016457019281601f8501121561016457835161006e610069826101a1565b610168565b9481865260208601936020838301011161016457815f926020809301865e86010152823b15610152577f360894a13ba1a3210667c828492db98dca3e2076cc3735a920a3ca505d382bbc80546001600160a01b031916821790557fbc7cd75a20ee27fd9adebab32041f755214dbc6bffa90cc0225b39da2e5c2d3b5f80a282511561013a575f8091610122945190845af43d15610132573d91610113610069846101a1565b9283523d5f602085013e6101bc565b505b604051608d908161021b8239f35b6060916101bc565b50505034156101245763b398979f60e01b5f5260045ffd5b634c9c8ce360e01b5f5260045260245ffd5b5f80fd5b6040519190601f01601f191682016001600160401b0381118382101761018d57604052565b634e487b7160e01b5f52604160045260245ffd5b6001600160401b03811161018d57601f01601f191660200190565b906101e057508051156101d157805190602001fd5b63d6bda27560e01b5f5260045ffd5b81511580610211575b6101f1575090565b639996b31560e01b5f9081526001600160a01b0391909116600452602490fd5b50803b156101e956fe60806040525f8073ffffffffffffffffffffffffffffffffffffffff7f360894a13ba1a3210667c828492db98dca3e2076cc3735a920a3ca505d382bbc5416368280378136915af43d5f803e156053573d5ff35b3d5ffdfea264697066735822122027a9d44be0d6d18cf638c81733892ec9c2fa654f1b068c13dc775a93090c072864736f6c634300081a00330000000000000000000000008cba203fc4c8ab2a75607f4026805ca592327bf000000000000000000000000000000000000000000000000000000000000000400000000000000000000000000000000000000000000000000000000000000364da851f49000000000000000000000000eeee8b1371f1664b7c2a8c111d6062b6576fa6f00000000000000000000000001682ae6375c4e4a97e4b583bc394c861a46d896200000000000000000000000092275f59ceb72dd132de54f726f767ab6ba9559f00000000000000000000000000000000000000000000000000000000000000c000000000000000000000000000000000000000000000000000000000000001a0000000000000000000000000000000000000000000000000000000000000028000000000000000000000000000000000000000000000000000000000000000060000000000000000000000000000000000000000000000000000000000000001000000000000000000000000000000000000000000000000000000000000a86a000000000000000000000000000000000000000000000000000000000000000a000000000000000000000000000000000000000000000000000000000000a4b10000000000000000000000000000000000000000000000000000000000002105000000000000000000000000000000000000000000000000000000000000008900000000000000000000000000000000000000000000000000000000000000060000000000000000000000000000000000000000000000000000000000000000000000000000000000000000000000000000000000000000000000000000000100000000000000000000000000000000000000000000000000000000000000020000000000000000000000000000000000000000000000000000000000000003000000000000000000000000000000000000000000000000000000000000000600000000000000000000000000000000000000000000000000000000000000070000000000000000000000000000000000000000000000000000000000000006000000000000000000000000a0b86991c6218b36c1d19d4a2e9eb0ce3606eb48000000000000000000000000b97ef9ef8734c71904d8002f8b6bc66dd9c48a6e0000000000000000000000000b2c639c533813f4aa9d7837caf62653d097ff85000000000000000000000000af88d065e77c8cc2239327c5edb3a432268e5831000000000000000000000000833589fcd6edb6e08f4c7c32d4f71b54bda029130000000000000000000000003c499c542cef5e3811e1192ce70d8cc03d5c335900000000000000000000000000000000000000000000000000000000"
      ],
      "transaction": {
        "from": "0x2a6d311394184eeb6df8fbbf58626b085374ffe7",
        "to": "0x9fbb3df7c40da2e5a0de984ffe2ccb7c47cd0abf",
        "gas": "0x87394",
        "value": "0x0",
        "input": "0xcdcb760a52b9c94b65f889345ec8c575d402b506067c81df7fabe5d18f74ef25cf1f46800000000000000000000000000000000000000000000000000000000000000040000000000000000000000000000000000000000000000000000000000000068860806040526102a88038038061001481610168565b92833981016040828203126101645781516001600160a01b03811692909190838303610164576020810151906001600160401b03821161016457019281601f8501121561016457835161006e610069826101a1565b610168565b9481865260208601936020838301011161016457815f926020809301865e86010152823b15610152577f360894a13ba1a3210667c828492db98dca3e2076cc3735a920a3ca505d382bbc80546001600160a01b031916821790557fbc7cd75a20ee27fd9adebab32041f755214dbc6bffa90cc0225b39da2e5c2d3b5f80a282511561013a575f8091610122945190845af43d15610132573d91610113610069846101a1565b9283523d5f602085013e6101bc565b505b604051608d908161021b8239f35b6060916101bc565b50505034156101245763b398979f60e01b5f5260045ffd5b634c9c8ce360e01b5f5260045260245ffd5b5f80fd5b6040519190601f01601f191682016001600160401b0381118382101761018d57604052565b634e487b7160e01b5f52604160045260245ffd5b6001600160401b03811161018d57601f01601f191660200190565b906101e057508051156101d157805190602001fd5b63d6bda27560e01b5f5260045ffd5b81511580610211575b6101f1575090565b639996b31560e01b5f9081526001600160a01b0391909116600452602490fd5b50803b156101e956fe60806040525f8073ffffffffffffffffffffffffffffffffffffffff7f360894a13ba1a3210667c828492db98dca3e2076cc3735a920a3ca505d382bbc5416368280378136915af43d5f803e156053573d5ff35b3d5ffdfea264697066735822122027a9d44be0d6d18cf638c81733892ec9c2fa654f1b068c13dc775a93090c072864736f6c634300081a00330000000000000000000000008cba203fc4c8ab2a75607f4026805ca592327bf000000000000000000000000000000000000000000000000000000000000000400000000000000000000000000000000000000000000000000000000000000364da851f49000000000000000000000000eeee8b1371f1664b7c2a8c111d6062b6576fa6f00000000000000000000000001682ae6375c4e4a97e4b583bc394c861a46d896200000000000000000000000092275f59ceb72dd132de54f726f767ab6ba9559f00000000000000000000000000000000000000000000000000000000000000c000000000000000000000000000000000000000000000000000000000000001a0000000000000000000000000000000000000000000000000000000000000028000000000000000000000000000000000000000000000000000000000000000060000000000000000000000000000000000000000000000000000000000000001000000000000000000000000000000000000000000000000000000000000a86a000000000000000000000000000000000000000000000000000000000000000a000000000000000000000000000000000000000000000000000000000000a4b10000000000000000000000000000000000000000000000000000000000002105000000000000000000000000000000000000000000000000000000000000008900000000000000000000000000000000000000000000000000000000000000060000000000000000000000000000000000000000000000000000000000000000000000000000000000000000000000000000000000000000000000000000000100000000000000000000000000000000000000000000000000000000000000020000000000000000000000000000000000000000000000000000000000000003000000000000000000000000000000000000000000000000000000000000000600000000000000000000000000000000000000000000000000000000000000070000000000000000000000000000000000000000000000000000000000000006000000000000000000000000a0b86991c6218b36c1d19d4a2e9eb0ce3606eb48000000000000000000000000b97ef9ef8734c71904d8002f8b6bc66dd9c48a6e0000000000000000000000000b2c639c533813f4aa9d7837caf62653d097ff85000000000000000000000000af88d065e77c8cc2239327c5edb3a432268e5831000000000000000000000000833589fcd6edb6e08f4c7c32d4f71b54bda029130000000000000000000000003c499c542cef5e3811e1192ce70d8cc03d5c335900000000000000000000000000000000000000000000000000000000000000000000000000000000000000000000000000000000",
        "nonce": "0x6682",
        "chainId": "0x2105"
      },
      "additionalContracts": [
        {
          "transactionType": "CREATE2",
          "address": "0xbb592b37fa4f3f918228cf7572fe2b86816b877f",
          "initCode": "0x67363d3d37363d34f03d5260086018f3"
        },
        {
          "transactionType": "CREATE",
          "address": "0x97da4faa21da8bab9b0724b854bd43250f25ff58",
          "initCode": "0x60806040526102a88038038061001481610168565b92833981016040828203126101645781516001600160a01b03811692909190838303610164576020810151906001600160401b03821161016457019281601f8501121561016457835161006e610069826101a1565b610168565b9481865260208601936020838301011161016457815f926020809301865e86010152823b15610152577f360894a13ba1a3210667c828492db98dca3e2076cc3735a920a3ca505d382bbc80546001600160a01b031916821790557fbc7cd75a20ee27fd9adebab32041f755214dbc6bffa90cc0225b39da2e5c2d3b5f80a282511561013a575f8091610122945190845af43d15610132573d91610113610069846101a1565b9283523d5f602085013e6101bc565b505b604051608d908161021b8239f35b6060916101bc565b50505034156101245763b398979f60e01b5f5260045ffd5b634c9c8ce360e01b5f5260045260245ffd5b5f80fd5b6040519190601f01601f191682016001600160401b0381118382101761018d57604052565b634e487b7160e01b5f52604160045260245ffd5b6001600160401b03811161018d57601f01601f191660200190565b906101e057508051156101d157805190602001fd5b63d6bda27560e01b5f5260045ffd5b81511580610211575b6101f1575090565b639996b31560e01b5f9081526001600160a01b0391909116600452602490fd5b50803b156101e956fe60806040525f8073ffffffffffffffffffffffffffffffffffffffff7f360894a13ba1a3210667c828492db98dca3e2076cc3735a920a3ca505d382bbc5416368280378136915af43d5f803e156053573d5ff35b3d5ffdfea264697066735822122027a9d44be0d6d18cf638c81733892ec9c2fa654f1b068c13dc775a93090c072864736f6c634300081a00330000000000000000000000008cba203fc4c8ab2a75607f4026805ca592327bf000000000000000000000000000000000000000000000000000000000000000400000000000000000000000000000000000000000000000000000000000000364da851f49000000000000000000000000eeee8b1371f1664b7c2a8c111d6062b6576fa6f00000000000000000000000001682ae6375c4e4a97e4b583bc394c861a46d896200000000000000000000000092275f59ceb72dd132de54f726f767ab6ba9559f00000000000000000000000000000000000000000000000000000000000000c000000000000000000000000000000000000000000000000000000000000001a0000000000000000000000000000000000000000000000000000000000000028000000000000000000000000000000000000000000000000000000000000000060000000000000000000000000000000000000000000000000000000000000001000000000000000000000000000000000000000000000000000000000000a86a000000000000000000000000000000000000000000000000000000000000000a000000000000000000000000000000000000000000000000000000000000a4b10000000000000000000000000000000000000000000000000000000000002105000000000000000000000000000000000000000000000000000000000000008900000000000000000000000000000000000000000000000000000000000000060000000000000000000000000000000000000000000000000000000000000000000000000000000000000000000000000000000000000000000000000000000100000000000000000000000000000000000000000000000000000000000000020000000000000000000000000000000000000000000000000000000000000003000000000000000000000000000000000000000000000000000000000000000600000000000000000000000000000000000000000000000000000000000000070000000000000000000000000000000000000000000000000000000000000006000000000000000000000000a0b86991c6218b36c1d19d4a2e9eb0ce3606eb48000000000000000000000000b97ef9ef8734c71904d8002f8b6bc66dd9c48a6e0000000000000000000000000b2c639c533813f4aa9d7837caf62653d097ff85000000000000000000000000af88d065e77c8cc2239327c5edb3a432268e5831000000000000000000000000833589fcd6edb6e08f4c7c32d4f71b54bda029130000000000000000000000003c499c542cef5e3811e1192ce70d8cc03d5c335900000000000000000000000000000000000000000000000000000000"
        }
      ],
      "isFixedGasLimit": false
    }
  ],
  "receipts": [
    {
      "status": "0x1",
      "cumulativeGasUsed": "0x10fab5a",
      "logs": [
        {
          "address": "0x97da4faa21da8bab9b0724b854bd43250f25ff58",
          "topics": [
            "0xbc7cd75a20ee27fd9adebab32041f755214dbc6bffa90cc0225b39da2e5c2d3b",
            "0x0000000000000000000000008cba203fc4c8ab2a75607f4026805ca592327bf0"
          ],
          "data": "0x",
          "blockHash": "0x2c8b7238073195e5d63a2c8f9a0e1e0991635b1d8e2cd21bb8b251fd52d15a86",
          "blockNumber": "0x1277eed",
          "transactionHash": "0xc1bd344c5f30521f0f17e8bec04611f1063ce06c0adda64100c0a41c77429d21",
          "transactionIndex": "0x54",
          "logIndex": "0x1a0",
          "removed": false
        },
        {
          "address": "0x97da4faa21da8bab9b0724b854bd43250f25ff58",
          "topics": [
            "0x8be0079c531659141344cd1fd0a4f28419497f9722a3daafe3b4186f6b6457e0",
            "0x0000000000000000000000000000000000000000000000000000000000000000",
            "0x000000000000000000000000eeee8b1371f1664b7c2a8c111d6062b6576fa6f0"
          ],
          "data": "0x",
          "blockHash": "0x2c8b7238073195e5d63a2c8f9a0e1e0991635b1d8e2cd21bb8b251fd52d15a86",
          "blockNumber": "0x1277eed",
          "transactionHash": "0xc1bd344c5f30521f0f17e8bec04611f1063ce06c0adda64100c0a41c77429d21",
          "transactionIndex": "0x54",
          "logIndex": "0x1a1",
          "removed": false
        },
        {
          "address": "0x97da4faa21da8bab9b0724b854bd43250f25ff58",
          "topics": [
            "0xc7f505b2f371ae2175ee4913f4499e1f2633a7b5936321eed1cdaeb6115181d2"
          ],
          "data": "0x0000000000000000000000000000000000000000000000000000000000000001",
          "blockHash": "0x2c8b7238073195e5d63a2c8f9a0e1e0991635b1d8e2cd21bb8b251fd52d15a86",
          "blockNumber": "0x1277eed",
          "transactionHash": "0xc1bd344c5f30521f0f17e8bec04611f1063ce06c0adda64100c0a41c77429d21",
          "transactionIndex": "0x54",
          "logIndex": "0x1a2",
          "removed": false
        }
      ],
      "logsBloom": "0x00000000000000000000000000000000400000000000000000800000000000000000000000000000000000000000000000000000000000000000000000000000000000000000000000000000000002000001000000020000000000000000000000000000020000000000000000000800000004000000001100000000000000400000000000000800000802000000000000000000000080000000000000000000000000000000000000000000000000000000000000000000000000000000000000000028000000000000000000000000000000000004000000000000004020000000000000000000000000000000000000000000000000000000000000000000",
      "type": "0x2",
      "transactionHash": "0xc1bd344c5f30521f0f17e8bec04611f1063ce06c0adda64100c0a41c77429d21",
      "transactionIndex": "0x54",
      "blockHash": "0x2c8b7238073195e5d63a2c8f9a0e1e0991635b1d8e2cd21bb8b251fd52d15a86",
      "blockNumber": "0x1277eed",
      "gasUsed": "0x61e65",
      "effectiveGasPrice": "0x339d04",
      "from": "0x2a6d311394184eeb6df8fbbf58626b085374ffe7",
      "to": "0x9fbb3df7c40da2e5a0de984ffe2ccb7c47cd0abf",
      "contractAddress": null,
      "l1BaseFeeScalar": "0x8dd",
      "l1BlobBaseFee": "0x1",
      "l1BlobBaseFeeScalar": "0x101c12",
      "l1Fee": "0xdf93cb2e9",
      "l1GasPrice": "0x6c0f5703",
      "l1GasUsed": "0x38fd"
    }
  ],
  "libraries": [],
  "pending": [],
  "returns": {},
  "timestamp": 1725520595,
  "chain": 8453,
  "commit": "2502a60f"
}