{
  "transactions": [
    {
      "hash": "0xb8e3686ad5aaa2f5f4cc8ebc392eba134add4b292b82ac8270b5f582b0a7b5ea",
      "transactionType": "CALL",
      "contractName": "DaimoAccountFactory",
      "contractAddress": "0xF9D643f5645C6140b8EEb7eF42878b71eBfEe40b",
      "function": "createAccount(uint8,bytes32[2],(address,uint256,bytes)[],uint256)",
      "arguments": [
        "0",
        "[0x65a2fa44daad46eab0278703edb6c4dcf5e30b8a9aec09fdc71a56f52aa392e4, 0x4a7a9e4604aa36898209997288e902ac544a555e4b5e0a9efef2b59233f3f437]",
        "[]",
        "0"
      ],
      "transaction": {
        "type": "0x02",
        "from": "0x2a6d311394184eeb6df8fbbf58626b085374ffe7",
        "to": "0xf9d643f5645c6140b8eeb7ef42878b71ebfee40b",
        "gas": "0xad82",
        "value": "0x0",
        "data": "0x2a0c114d000000000000000000000000000000000000000000000000000000000000000065a2fa44daad46eab0278703edb6c4dcf5e30b8a9aec09fdc71a56f52aa392e44a7a9e4604aa36898209997288e902ac544a555e4b5e0a9efef2b59233f3f43700000000000000000000000000000000000000000000000000000000000000a000000000000000000000000000000000000000000000000000000000000000000000000000000000000000000000000000000000000000000000000000000000",
        "nonce": "0x19",
        "accessList": []
      },
      "additionalContracts": [],
      "isFixedGasLimit": false
    }
  ],
  "receipts": [
    {
      "transactionHash": "0xb8e3686ad5aaa2f5f4cc8ebc392eba134add4b292b82ac8270b5f582b0a7b5ea",
      "transactionIndex": "0x1",
      "blockHash": "0xf4a5d1f44362e569c8d7e8d6d3da8d06f846b274ea49fd4eb16eff92b7808d79",
      "blockNumber": "0x57f861",
      "from": "0x2A6d311394184EeB6Df8FBBF58626B085374Ffe7",
      "to": "0xF9D643f5645C6140b8EEb7eF42878b71eBfEe40b",
      "cumulativeGasUsed": "0x177ac",
      "gasUsed": "0x7d9f",
      "contractAddress": null,
      "logs": [],
      "status": "0x1",
      "logsBloom": "0x00000000000000000000000000000000000000000000000000000000000000000000000000000000000000000000000000000000000000000000000000000000000000000000000000000000000000000000000000000000000000000000000000000000000000000000000000000000000000000000000000000000000000000000000000000000000000000000000000000000000000000000000000000000000000000000000000000000000000000000000000000000000000000000000000000000000000000000000000000000000000000000000000000000000000000000000000000000000000000000000000000000000000000000000000000000",
      "type": "0x2",
      "effectiveGasPrice": "0xb2d05efe"
    }
  ],
  "libraries": [],
  "pending": [],
  "returns": {},
  "timestamp": 1707298726,
  "chain": 84532,
  "multi": false,
  "commit": "af099239"
}