{
  "transactions": [
    {
      "hash": "0x3f52ed436b2da2cdc690bfe04c62b51dc39f73464cfa6a75f8da7203fd43c12e",
      "transactionType": "CALL",
      "contractName": null,
      "contractAddress": "0x805e896549e988212b8d479a872f00d3b7028108",
      "function": "createAccount(uint256,address,address,address,uint8,bytes32[2],uint256)",
      "arguments": [
        "84532",
        "0x036CbD53842c5426634e7929541eC2318f3dCF7e",
        "0x937A09Ec72f813A6cA0de20FCace3eA2156c63E0",
        "0x121ac6C5524395fadBA19a334736EB812a2ecD5A",
        "0",
        "[0x65a2fa44daad46eab0278703edb6c4dcf5e30b8a9aec09fdc71a56f52aa392e4, 0x4a7a9e4604aa36898209997288e902ac544a555e4b5e0a9efef2b59233f3f437]",
        "0"
      ],
      "transaction": {
        "from": "0x97c75cb48cdaf1626c15c3420e40fc6536577e63",
        "to": "0x805e896549e988212b8d479a872f00d3b7028108",
        "gas": "0x6b051",
        "value": "0x0",
        "input": "0xb75a89270000000000000000000000000000000000000000000000000000000000014a34000000000000000000000000036cbd53842c5426634e7929541ec2318f3dcf7e000000000000000000000000937a09ec72f813a6ca0de20fcace3ea2156c63e0000000000000000000000000121ac6c5524395fadba19a334736eb812a2ecd5a000000000000000000000000000000000000000000000000000000000000000065a2fa44daad46eab0278703edb6c4dcf5e30b8a9aec09fdc71a56f52aa392e44a7a9e4604aa36898209997288e902ac544a555e4b5e0a9efef2b59233f3f4370000000000000000000000000000000000000000000000000000000000000000",
        "nonce": "0x3",
        "chainId": "0xaa37dc"
      },
      "additionalContracts": [
        {
          "transactionType": "CREATE2",
          "address": "0x9c749f19bb69a6fa39a138880d33bdc7b1c48c94",
          "initCode": "0x60806040526040516104ee3803806104ee833981016040819052610022916102de565b61002e82826000610035565b50506103fb565b61003e83610061565b60008251118061004b5750805b1561005c5761005a83836100a1565b505b505050565b61006a816100cd565b6040516001600160a01b038216907fbc7cd75a20ee27fd9adebab32041f755214dbc6bffa90cc0225b39da2e5c2d3b90600090a250565b60606100c683836040518060600160405280602781526020016104c760279139610180565b9392505050565b6001600160a01b0381163b61013f5760405162461bcd60e51b815260206004820152602d60248201527f455243313936373a206e657720696d706c656d656e746174696f6e206973206e60448201526c1bdd08184818dbdb9d1c9858dd609a1b60648201526084015b60405180910390fd5b7f360894a13ba1a3210667c828492db98dca3e2076cc3735a920a3ca505d382bbc80546001600160a01b0319166001600160a01b0392909216919091179055565b6060600080856001600160a01b03168560405161019d91906103ac565b600060405180830381855af49150503d80600081146101d8576040519150601f19603f3d011682016040523d82523d6000602084013e6101dd565b606091505b5090925090506101ef868383876101f9565b9695505050505050565b60608315610268578251600003610261576001600160a01b0385163b6102615760405162461bcd60e51b815260206004820152601d60248201527f416464726573733a2063616c6c20746f206e6f6e2d636f6e74726163740000006044820152606401610136565b5081610272565b610272838361027a565b949350505050565b81511561028a5781518083602001fd5b8060405162461bcd60e51b815260040161013691906103c8565b634e487b7160e01b600052604160045260246000fd5b60005b838110156102d55781810151838201526020016102bd565b50506000910152565b600080604083850312156102f157600080fd5b82516001600160a01b038116811461030857600080fd5b60208401519092506001600160401b038082111561032557600080fd5b818501915085601f83011261033957600080fd5b81518181111561034b5761034b6102a4565b604051601f8201601f19908116603f01168101908382118183101715610373576103736102a4565b8160405282815288602084870101111561038c57600080fd5b61039d8360208301602088016102ba565b80955050505050509250929050565b600082516103be8184602087016102ba565b9190910192915050565b60208152600082518060208401526103e78160408501602087016102ba565b601f01601f19169190910160400192915050565b60be806104096000396000f3fe608060405236601057600e6013565b005b600e5b601f601b6021565b6065565b565b600060607f360894a13ba1a3210667c828492db98dca3e2076cc3735a920a3ca505d382bbc5473ffffffffffffffffffffffffffffffffffffffff1690565b905090565b3660008037600080366000845af43d6000803e8080156083573d6000f35b3d6000fdfea2646970667358221220cac697f87a268be3719a8efd0e090d0df80ed14f14dafb14df314f0295a97acc64736f6c63430008150033416464726573733a206c6f772d6c6576656c2064656c65676174652063616c6c206661696c65640000000000000000000000009112a023feffdff9d92099474cdab7f370974e42000000000000000000000000000000000000000000000000000000000000004000000000000000000000000000000000000000000000000000000000000000e45445c7940000000000000000000000000000000000000000000000000000000000014a34000000000000000000000000036cbd53842c5426634e7929541ec2318f3dcf7e000000000000000000000000937a09ec72f813a6ca0de20fcace3ea2156c63e0000000000000000000000000121ac6c5524395fadba19a334736eb812a2ecd5a000000000000000000000000000000000000000000000000000000000000000065a2fa44daad46eab0278703edb6c4dcf5e30b8a9aec09fdc71a56f52aa392e44a7a9e4604aa36898209997288e902ac544a555e4b5e0a9efef2b59233f3f43700000000000000000000000000000000000000000000000000000000"
        }
      ],
      "isFixedGasLimit": false
    }
  ],
  "receipts": [
    {
      "status": "0x1",
      "cumulativeGasUsed": "0x299f0e",
      "logs": [
        {
          "address": "0x9c749f19bb69a6fa39a138880d33bdc7b1c48c94",
          "topics": [
            "0xbc7cd75a20ee27fd9adebab32041f755214dbc6bffa90cc0225b39da2e5c2d3b",
            "0x0000000000000000000000009112a023feffdff9d92099474cdab7f370974e42"
          ],
          "data": "0x",
          "blockHash": "0x8786f9d19375fa0f5f5adc504cefe05930fc8ce677423405835e35cac82ef576",
          "blockNumber": "0xd61f63",
          "transactionHash": "0x3f52ed436b2da2cdc690bfe04c62b51dc39f73464cfa6a75f8da7203fd43c12e",
          "transactionIndex": "0x3",
          "logIndex": "0x38",
          "removed": false
        },
        {
          "address": "0x9c749f19bb69a6fa39a138880d33bdc7b1c48c94",
          "topics": [
            "0x35f7b11da9e46714137d629c8745bde42c0cc6c7cc715ed9f939a137dcc909ec",
            "0x0000000000000000000000005ff137d4b0fdcd49dca30c7cf57e578a026d2789"
          ],
          "data": "0x0000000000000000000000000000000000000000000000000000000000014a34000000000000000000000000036cbd53842c5426634e7929541ec2318f3dcf7e",
          "blockHash": "0x8786f9d19375fa0f5f5adc504cefe05930fc8ce677423405835e35cac82ef576",
          "blockNumber": "0xd61f63",
          "transactionHash": "0x3f52ed436b2da2cdc690bfe04c62b51dc39f73464cfa6a75f8da7203fd43c12e",
          "transactionIndex": "0x3",
          "logIndex": "0x39",
          "removed": false
        },
        {
          "address": "0x9c749f19bb69a6fa39a138880d33bdc7b1c48c94",
          "topics": [
            "0x1d84cb7fa5da6303adc54870a915cbf91d2cf642fcc5ce470b79b77467201876",
            "0x0000000000000000000000009c749f19bb69a6fa39a138880d33bdc7b1c48c94"
          ],
          "data": "0x000000000000000000000000000000000000000000000000000000000000000065a2fa44daad46eab0278703edb6c4dcf5e30b8a9aec09fdc71a56f52aa392e44a7a9e4604aa36898209997288e902ac544a555e4b5e0a9efef2b59233f3f437",
          "blockHash": "0x8786f9d19375fa0f5f5adc504cefe05930fc8ce677423405835e35cac82ef576",
          "blockNumber": "0xd61f63",
          "transactionHash": "0x3f52ed436b2da2cdc690bfe04c62b51dc39f73464cfa6a75f8da7203fd43c12e",
          "transactionIndex": "0x3",
          "logIndex": "0x3a",
          "removed": false
        },
        {
          "address": "0x9c749f19bb69a6fa39a138880d33bdc7b1c48c94",
          "topics": [
            "0x7f26b83ff96e1f2b6a682f133852f6798a09c465da95921460cefb3847402498"
          ],
          "data": "0x0000000000000000000000000000000000000000000000000000000000000001",
          "blockHash": "0x8786f9d19375fa0f5f5adc504cefe05930fc8ce677423405835e35cac82ef576",
          "blockNumber": "0xd61f63",
          "transactionHash": "0x3f52ed436b2da2cdc690bfe04c62b51dc39f73464cfa6a75f8da7203fd43c12e",
          "transactionIndex": "0x3",
          "logIndex": "0x3b",
          "removed": false
        }
      ],
      "logsBloom": "0x00000000000000000000000000000000400000000000000000000000000000004000000020400000000000000000000000000000000000000000000000000000010000000000000000000000000002000000000000000001000000000020000000000000000000000000000000000000000000000000004000800000000000000000000000000040000000000000204000020000000080000000000000080000000000000000000000000000000400000000000000004000000002000000000000010020000000800000000000040000000000000000000000000000400000000000000000000000000000000000000000000000000000000000000000000000",
      "type": "0x2",
      "transactionHash": "0x3f52ed436b2da2cdc690bfe04c62b51dc39f73464cfa6a75f8da7203fd43c12e",
      "transactionIndex": "0x3",
      "blockHash": "0x8786f9d19375fa0f5f5adc504cefe05930fc8ce677423405835e35cac82ef576",
      "blockNumber": "0xd61f63",
      "gasUsed": "0x4d816",
      "effectiveGasPrice": "0x1f4dfa4",
      "from": "0x97c75cb48cdaf1626c15c3420e40fc6536577e63",
      "to": "0x805e896549e988212b8d479a872f00d3b7028108",
      "contractAddress": null,
      "l1BaseFeeScalar": "0x1db0",
      "l1BlobBaseFee": "0x1",
      "l1BlobBaseFeeScalar": "0xd2730",
      "l1Fee": "0x2de7446572",
      "l1GasPrice": "0x1f3ec2618",
      "l1GasUsed": "0xc14"
    }
  ],
  "libraries": [],
  "pending": [],
  "returns": {},
  "timestamp": 1719868040,
  "chain": 11155420,
  "commit": "21210d1d"
}