{
  "transactions": [
    {
      "hash": "0xd8e20e903f0ed14423ee5011d6cba229aac858a3cf81cd9007fe32164b92bb69",
      "transactionType": "CALL",
      "contractName": "AccountFactory",
      "contractAddress": "0x950b352C271B3a7799Ed71542Dc49c9333a6c2C3",
      "function": "createAccount(uint8,bytes32[2],(address,uint256,bytes)[],uint256):(address)",
      "arguments": [
        "0",
        "[0x65a2fa44daad46eab0278703edb6c4dcf5e30b8a9aec09fdc71a56f52aa392e4, 0x4a7a9e4604aa36898209997288e902ac544a555e4b5e0a9efef2b59233f3f437]",
        "[]",
        "0"
      ],
      "transaction": {
        "type": "0x02",
        "from": "0x2a6d311394184eeb6df8fbbf58626b085374ffe7",
        "to": "0x950b352c271b3a7799ed71542dc49c9333a6c2c3",
        "gas": "0x47552",
        "value": "0x0",
        "data": "0x2a0c114d000000000000000000000000000000000000000000000000000000000000000065a2fa44daad46eab0278703edb6c4dcf5e30b8a9aec09fdc71a56f52aa392e44a7a9e4604aa36898209997288e902ac544a555e4b5e0a9efef2b59233f3f43700000000000000000000000000000000000000000000000000000000000000a000000000000000000000000000000000000000000000000000000000000000000000000000000000000000000000000000000000000000000000000000000000",
        "nonce": "0x3b6",
        "accessList": []
      },
      "additionalContracts": [
        {
          "transactionType": "CREATE2",
          "address": "0x052134048536337AbEE9bD08E47d922a1b04BaB0",
          "initCode": "0x60406080815261042c908138038061001681610218565b93843982019181818403126102135780516001600160a01b038116808203610213576020838101516001600160401b0394919391858211610213570186601f820112156102135780519061007161006c83610253565b610218565b918083528583019886828401011161021357888661008f930161026e565b813b156101b9577f360894a13ba1a3210667c828492db98dca3e2076cc3735a920a3ca505d382bbc80546001600160a01b031916841790556000927fbc7cd75a20ee27fd9adebab32041f755214dbc6bffa90cc0225b39da2e5c2d3b8480a28051158015906101b2575b61010b575b855160e790816103458239f35b855194606086019081118682101761019e578697849283926101889952602788527f416464726573733a206c6f772d6c6576656c2064656c65676174652063616c6c87890152660819985a5b195960ca1b8a8901525190845af4913d15610194573d9061017a61006c83610253565b91825281943d92013e610291565b508038808080806100fe565b5060609250610291565b634e487b7160e01b84526041600452602484fd5b50826100f9565b855162461bcd60e51b815260048101859052602d60248201527f455243313936373a206e657720696d706c656d656e746174696f6e206973206e60448201526c1bdd08184818dbdb9d1c9858dd609a1b6064820152608490fd5b600080fd5b6040519190601f01601f191682016001600160401b0381118382101761023d57604052565b634e487b7160e01b600052604160045260246000fd5b6001600160401b03811161023d57601f01601f191660200190565b60005b8381106102815750506000910152565b8181015183820152602001610271565b919290156102f357508151156102a5575090565b3b156102ae5790565b60405162461bcd60e51b815260206004820152601d60248201527f416464726573733a2063616c6c20746f206e6f6e2d636f6e74726163740000006044820152606490fd5b8251909150156103065750805190602001fd5b6044604051809262461bcd60e51b825260206004830152610336815180928160248601526020868601910161026e565b601f01601f19168101030190fdfe60806040523615605f5773ffffffffffffffffffffffffffffffffffffffff7f360894a13ba1a3210667c828492db98dca3e2076cc3735a920a3ca505d382bbc54166000808092368280378136915af43d82803e15605b573d90f35b3d90fd5b73ffffffffffffffffffffffffffffffffffffffff7f360894a13ba1a3210667c828492db98dca3e2076cc3735a920a3ca505d382bbc54166000808092368280378136915af43d82803e15605b573d90f3fea26469706673582212203e27870c29c906c7a4abb622ab67817dc9be875182a3cce06cf0e3a1a85323ee64736f6c6343000815003300000000000000000000000061f5a4ecafc99b6f62f9bbdd737cc4a662876b14000000000000000000000000000000000000000000000000000000000000004000000000000000000000000000000000000000000000000000000000000000a4c73ba526000000000000000000000000000000000000000000000000000000000000000065a2fa44daad46eab0278703edb6c4dcf5e30b8a9aec09fdc71a56f52aa392e44a7a9e4604aa36898209997288e902ac544a555e4b5e0a9efef2b59233f3f4370000000000000000000000000000000000000000000000000000000000000080000000000000000000000000000000000000000000000000000000000000000000000000000000000000000000000000000000000000000000000000"
        }
      ],
      "isFixedGasLimit": false
    }
  ],
  "receipts": [
    {
      "transactionHash": "0xd8e20e903f0ed14423ee5011d6cba229aac858a3cf81cd9007fe32164b92bb69",
      "transactionIndex": "0x1",
      "blockHash": "0xa69bbf8e1146a70fb624503b32e641a417a193b18f814f49c411392360ef2185",
      "blockNumber": "0x9c6789",
      "from": "0x2A6d311394184EeB6Df8FBBF58626B085374Ffe7",
      "to": "0x950b352C271B3a7799Ed71542Dc49c9333a6c2C3",
      "cumulativeGasUsed": "0x3f152",
      "gasUsed": "0x33a4d",
      "contractAddress": null,
      "logs": [
        {
          "address": "0x052134048536337AbEE9bD08E47d922a1b04BaB0",
          "topics": [
            "0xbc7cd75a20ee27fd9adebab32041f755214dbc6bffa90cc0225b39da2e5c2d3b",
            "0x00000000000000000000000061f5a4ecafc99b6f62f9bbdd737cc4a662876b14"
          ],
          "data": "0x",
          "blockHash": "0xa69bbf8e1146a70fb624503b32e641a417a193b18f814f49c411392360ef2185",
          "blockNumber": "0x9c6789",
          "transactionHash": "0xd8e20e903f0ed14423ee5011d6cba229aac858a3cf81cd9007fe32164b92bb69",
          "transactionIndex": "0x1",
          "logIndex": "0x0",
          "removed": false
        },
        {
          "address": "0x052134048536337AbEE9bD08E47d922a1b04BaB0",
          "topics": [
            "0x9b44a2c7f9f0b5aa4e7da60d8a2325796c57f93a45559d66515743ffbd8a6103",
            "0x0000000000000000000000005ff137d4b0fdcd49dca30c7cf57e578a026d2789"
          ],
          "data": "0x",
          "blockHash": "0xa69bbf8e1146a70fb624503b32e641a417a193b18f814f49c411392360ef2185",
          "blockNumber": "0x9c6789",
          "transactionHash": "0xd8e20e903f0ed14423ee5011d6cba229aac858a3cf81cd9007fe32164b92bb69",
          "transactionIndex": "0x1",
          "logIndex": "0x1",
          "removed": false
        },
        {
          "address": "0x052134048536337AbEE9bD08E47d922a1b04BaB0",
          "topics": [
            "0x1d84cb7fa5da6303adc54870a915cbf91d2cf642fcc5ce470b79b77467201876",
            "0x000000000000000000000000052134048536337abee9bd08e47d922a1b04bab0"
          ],
          "data": "0x000000000000000000000000000000000000000000000000000000000000000065a2fa44daad46eab0278703edb6c4dcf5e30b8a9aec09fdc71a56f52aa392e44a7a9e4604aa36898209997288e902ac544a555e4b5e0a9efef2b59233f3f437",
          "blockHash": "0xa69bbf8e1146a70fb624503b32e641a417a193b18f814f49c411392360ef2185",
          "blockNumber": "0x9c6789",
          "transactionHash": "0xd8e20e903f0ed14423ee5011d6cba229aac858a3cf81cd9007fe32164b92bb69",
          "transactionIndex": "0x1",
          "logIndex": "0x2",
          "removed": false
        },
        {
          "address": "0x052134048536337AbEE9bD08E47d922a1b04BaB0",
          "topics": [
            "0x7f26b83ff96e1f2b6a682f133852f6798a09c465da95921460cefb3847402498"
          ],
          "data": "0x0000000000000000000000000000000000000000000000000000000000000001",
          "blockHash": "0xa69bbf8e1146a70fb624503b32e641a417a193b18f814f49c411392360ef2185",
          "blockNumber": "0x9c6789",
          "transactionHash": "0xd8e20e903f0ed14423ee5011d6cba229aac858a3cf81cd9007fe32164b92bb69",
          "transactionIndex": "0x1",
          "logIndex": "0x3",
          "removed": false
        }
      ],
      "status": "0x1",
      "logsBloom": "0x00000000005000000000000000000000400000000000002000000000000000000000000000400000000000000000000000000000000000000000000000000000010000000000000000000000000002000000000000000000000000000000200000000000000000000000000002000000000000000000004000800000000000000000000000000000000000000000004000000010000080000000000080000010000000000080000000000000000400000000100000000000000002000000000000000020000000000100000000040000000000000000000000000000000000000000000020000000000000000000000000000000000000000000000000000000",
      "type": "0x2",
      "effectiveGasPrice": "0xb2d05e32"
    }
  ],
  "libraries": [],
  "pending": [],
  "returns": {},
  "timestamp": 1695693880,
  "chain": 84531,
  "multi": false,
  "commit": "b7badaf"
}