{
  "transactions": [
    {
      "hash": "0x95740e1a1c82b0b8f3646e11b655b0a285955e24fe1b4d76416d5a7a74c98830",
      "transactionType": "CALL",
      "contractName": "AccountFactory",
      "contractAddress": "0x153BE6528F5722a5e3033f26b4FC5148f4af5364",
      "function": "createAccount(uint8,bytes32[2],(address,uint256,bytes)[],uint256):(address)",
      "arguments": [
        "0",
        "[0x65a2fa44daad46eab0278703edb6c4dcf5e30b8a9aec09fdc71a56f52aa392e4, 0x4a7a9e4604aa36898209997288e902ac544a555e4b5e0a9efef2b59233f3f437]",
        "[]",
        "0"
      ],
      "transaction": {
        "type": "0x00",
        "from": "0x9a57d792cc04a7bceb5d1f8b1b7af5f8e5695e54",
        "to": "0x153be6528f5722a5e3033f26b4fc5148f4af5364",
        "gas": "0x44516",
        "value": "0x0",
        "data": "0x2a0c114d000000000000000000000000000000000000000000000000000000000000000065a2fa44daad46eab0278703edb6c4dcf5e30b8a9aec09fdc71a56f52aa392e44a7a9e4604aa36898209997288e902ac544a555e4b5e0a9efef2b59233f3f43700000000000000000000000000000000000000000000000000000000000000a000000000000000000000000000000000000000000000000000000000000000000000000000000000000000000000000000000000000000000000000000000000",
        "nonce": "0x30"
      },
      "additionalContracts": [
        {
          "transactionType": "CREATE2",
          "address": "0xc66e99e93391e3Dc7a01b2998869e875629F7b73",
          "initCode": "60806040526040516104e13803806104e1833981016040819052610022916102de565b61002e82826000610035565b50506103fb565b61003e83610061565b60008251118061004b5750805b1561005c5761005a83836100a1565b505b505050565b61006a816100cd565b6040516001600160a01b038216907fbc7cd75a20ee27fd9adebab32041f755214dbc6bffa90cc0225b39da2e5c2d3b90600090a250565b60606100c683836040518060600160405280602781526020016104ba60279139610180565b9392505050565b6001600160a01b0381163b61013f5760405162461bcd60e51b815260206004820152602d60248201527f455243313936373a206e657720696d706c656d656e746174696f6e206973206e60448201526c1bdd08184818dbdb9d1c9858dd609a1b60648201526084015b60405180910390fd5b7f360894a13ba1a3210667c828492db98dca3e2076cc3735a920a3ca505d382bbc80546001600160a01b0319166001600160a01b0392909216919091179055565b6060600080856001600160a01b03168560405161019d91906103ac565b600060405180830381855af49150503d80600081146101d8576040519150601f19603f3d011682016040523d82523d6000602084013e6101dd565b606091505b5090925090506101ef868383876101f9565b9695505050505050565b60608315610268578251600003610261576001600160a01b0385163b6102615760405162461bcd60e51b815260206004820152601d60248201527f416464726573733a2063616c6c20746f206e6f6e2d636f6e74726163740000006044820152606401610136565b5081610272565b610272838361027a565b949350505050565b81511561028a5781518083602001fd5b8060405162461bcd60e51b815260040161013691906103c8565b634e487b7160e01b600052604160045260246000fd5b60005b838110156102d55781810151838201526020016102bd565b50506000910152565b600080604083850312156102f157600080fd5b82516001600160a01b038116811461030857600080fd5b60208401519092506001600160401b038082111561032557600080fd5b818501915085601f83011261033957600080fd5b81518181111561034b5761034b6102a4565b604051601f8201601f19908116603f01168101908382118183101715610373576103736102a4565b8160405282815288602084870101111561038c57600080fd5b61039d8360208301602088016102ba565b80955050505050509250929050565b600082516103be8184602087016102ba565b9190910192915050565b60208152600082518060208401526103e78160408501602087016102ba565b601f01601f19169190910160400192915050565b60b1806104096000396000f3fe608060405236601057600e6013565b005b600e5b601f601b6021565b6058565b565b600060537f360894a13ba1a3210667c828492db98dca3e2076cc3735a920a3ca505d382bbc546001600160a01b031690565b905090565b3660008037600080366000845af43d6000803e8080156076573d6000f35b3d6000fdfea26469706673582212209fee0ed9880950547b65318f1b24738ce401293d2f27f6dec2b78951a0d340de64736f6c63430008130033416464726573733a206c6f772d6c6576656c2064656c65676174652063616c6c206661696c65640000000000000000000000005d351d7d239109aeacf6c04123def7e149e631f5000000000000000000000000000000000000000000000000000000000000004000000000000000000000000000000000000000000000000000000000000000a4c73ba526000000000000000000000000000000000000000000000000000000000000000065a2fa44daad46eab0278703edb6c4dcf5e30b8a9aec09fdc71a56f52aa392e44a7a9e4604aa36898209997288e902ac544a555e4b5e0a9efef2b59233f3f4370000000000000000000000000000000000000000000000000000000000000080000000000000000000000000000000000000000000000000000000000000000000000000000000000000000000000000000000000000000000000000"
        }
      ],
      "isFixedGasLimit": false
    }
  ],
  "receipts": [
    {
      "transactionHash": "0x95740e1a1c82b0b8f3646e11b655b0a285955e24fe1b4d76416d5a7a74c98830",
      "transactionIndex": "0x2",
      "blockHash": "0x9c7fbcfacd774be219a3ff2b816921cd1bc84578483fbd1d393a22ccfc43e7d2",
      "blockNumber": "0x8abb33",
      "from": "0x9a57D792CC04a7bCEB5D1f8b1B7AF5F8e5695E54",
      "to": "0x153BE6528F5722a5e3033f26b4FC5148f4af5364",
      "cumulativeGasUsed": "0x42e71",
      "gasUsed": "0x31760",
      "contractAddress": null,
      "logs": [
        {
          "address": "0xc66e99e93391e3Dc7a01b2998869e875629F7b73",
          "topics": [
            "0xbc7cd75a20ee27fd9adebab32041f755214dbc6bffa90cc0225b39da2e5c2d3b",
            "0x0000000000000000000000005d351d7d239109aeacf6c04123def7e149e631f5"
          ],
          "data": "0x",
          "blockHash": "0x9c7fbcfacd774be219a3ff2b816921cd1bc84578483fbd1d393a22ccfc43e7d2",
          "blockNumber": "0x8abb33",
          "transactionHash": "0x95740e1a1c82b0b8f3646e11b655b0a285955e24fe1b4d76416d5a7a74c98830",
          "transactionIndex": "0x2",
          "logIndex": "0x0",
          "removed": false
        },
        {
          "address": "0xc66e99e93391e3Dc7a01b2998869e875629F7b73",
          "topics": [
            "0x9b44a2c7f9f0b5aa4e7da60d8a2325796c57f93a45559d66515743ffbd8a6103",
            "0x0000000000000000000000005ff137d4b0fdcd49dca30c7cf57e578a026d2789"
          ],
          "data": "0x",
          "blockHash": "0x9c7fbcfacd774be219a3ff2b816921cd1bc84578483fbd1d393a22ccfc43e7d2",
          "blockNumber": "0x8abb33",
          "transactionHash": "0x95740e1a1c82b0b8f3646e11b655b0a285955e24fe1b4d76416d5a7a74c98830",
          "transactionIndex": "0x2",
          "logIndex": "0x1",
          "removed": false
        },
        {
          "address": "0xc66e99e93391e3Dc7a01b2998869e875629F7b73",
          "topics": [
            "0x1d84cb7fa5da6303adc54870a915cbf91d2cf642fcc5ce470b79b77467201876",
            "0x000000000000000000000000c66e99e93391e3dc7a01b2998869e875629f7b73"
          ],
          "data": "0x000000000000000000000000000000000000000000000000000000000000000065a2fa44daad46eab0278703edb6c4dcf5e30b8a9aec09fdc71a56f52aa392e44a7a9e4604aa36898209997288e902ac544a555e4b5e0a9efef2b59233f3f437",
          "blockHash": "0x9c7fbcfacd774be219a3ff2b816921cd1bc84578483fbd1d393a22ccfc43e7d2",
          "blockNumber": "0x8abb33",
          "transactionHash": "0x95740e1a1c82b0b8f3646e11b655b0a285955e24fe1b4d76416d5a7a74c98830",
          "transactionIndex": "0x2",
          "logIndex": "0x2",
          "removed": false
        },
        {
          "address": "0xc66e99e93391e3Dc7a01b2998869e875629F7b73",
          "topics": [
            "0x7f26b83ff96e1f2b6a682f133852f6798a09c465da95921460cefb3847402498"
          ],
          "data": "0x0000000000000000000000000000000000000000000000000000000000000001",
          "blockHash": "0x9c7fbcfacd774be219a3ff2b816921cd1bc84578483fbd1d393a22ccfc43e7d2",
          "blockNumber": "0x8abb33",
          "transactionHash": "0x95740e1a1c82b0b8f3646e11b655b0a285955e24fe1b4d76416d5a7a74c98830",
          "transactionIndex": "0x2",
          "logIndex": "0x3",
          "removed": false
        }
      ],
      "status": "0x1",
      "logsBloom": "0x00000000004000000000000000000000400000000000002000000000000000000000000000400000000000000000010000000000000000000100000000000000010000000000000000000000000002000000000000000000000000000000000000000000000000000000000001000000000000000000004020800000000000000000000000000000000000000800014000000000000080000000000000000000000000000080000000000000000400000000000000000000000002000000000000000020000000000000000000040000000000000000000000008002000000000000000000000000000000000000000000000000000000000000020000000000",
      "type": "0x0",
      "effectiveGasPrice": "0x5f5e132"
    }
  ],
  "libraries": [],
  "pending": [],
  "returns": {},
  "timestamp": 1693377419,
  "chain": 84531,
  "multi": false,
  "commit": "71023fd3"
}