{
  "transactions": [
    {
      "hash": "0xc5dbb704df1ca41b55b9024048ab08a6dcc74c7be241938e1cccf9dba70c7a28",
      "transactionType": "CALL",
      "contractName": null,
      "contractAddress": "0x4518f95bd1ab24b73aeb6aeafd1567e1e04894ea",
      "function": "setBridgeRoutes(uint256[],(address,address,uint256,uint256)[])",
      "arguments": [
        "[59144]",
        "[(0x79A02482A880bCE3F13e09Da970dC34db4CD24d1, 0x176211869cA2b568f2A7D4EE941E073a821EE1ff, 690000000000000, 210000)]"
      ],
      "transaction": {
        "from": "0x2f321372e8a9755cd2ca6114eb8da32a14f8100b",
        "to": "0x4518f95bd1ab24b73aeb6aeafd1567e1e04894ea",
        "gas": "0x14b73",
        "value": "0x0",
        "input": "0x5943e590000000000000000000000000000000000000000000000000000000000000004000000000000000000000000000000000000000000000000000000000000000800000000000000000000000000000000000000000000000000000000000000001000000000000000000000000000000000000000000000000000000000000e708000000000000000000000000000000000000000000000000000000000000000100000000000000000000000079a02482a880bce3f13e09da970dc34db4cd24d1000000000000000000000000176211869ca2b568f2a7d4ee941e073a821ee1ff0000000000000000000000000000000000000000000000000002738d24e520000000000000000000000000000000000000000000000000000000000000033450",
        "nonce": "0x2",
        "chainId": "0x1e0"
      },
      "additionalContracts": [],
      "isFixedGasLimit": false
    }
  ],
  "receipts": [
    {
      "status": "0x1",
      "cumulativeGasUsed": "0x22e37d",
      "logs": [
        {
          "address": "0x4518f95bd1ab24b73aeb6aeafd1567e1e04894ea",
          "topics": [
            "0xe96aa79026770fec7012b5a3e3cb07618568662b405b5281ac10973d85165afd",
            "0x000000000000000000000000000000000000000000000000000000000000e708"
          ],
          "data": "0x00000000000000000000000079a02482a880bce3f13e09da970dc34db4cd24d1000000000000000000000000176211869ca2b568f2a7d4ee941e073a821ee1ff0000000000000000000000000000000000000000000000000002738d24e520000000000000000000000000000000000000000000000000000000000000033450",
          "blockHash": "0xa03106e3ce2dec3ab02498f7835a0f154962dea2edde0fda0770d2bca6245ac1",
          "blockNumber": "0x781e09",
          "transactionHash": "0xc5dbb704df1ca41b55b9024048ab08a6dcc74c7be241938e1cccf9dba70c7a28",
          "transactionIndex": "0xb",
          "logIndex": "0x36",
          "removed": false
        }
      ],
      "logsBloom": "0x00100001000000000000000000000000000000000000000000000000000000000000000000000000000000000000000040000000000000000000000000000001000000000000000000000000000400000000000000000000000000000000000000000000000000000000000000000000000000000000000000000000000000000000000000000000002000000000000000000000000000000000000400000000000001000000000000000000000000000000000800000000000000000000000000000000000000000000000000000000000000000000000000000000000000000000000000000000000000000000000000000000000000000000000000000000",
      "type": "0x2",
      "transactionHash": "0xc5dbb704df1ca41b55b9024048ab08a6dcc74c7be241938e1cccf9dba70c7a28",
      "transactionIndex": "0xb",
      "blockHash": "0xa03106e3ce2dec3ab02498f7835a0f154962dea2edde0fda0770d2bca6245ac1",
      "blockNumber": "0x781e09",
      "gasUsed": "0xe2a2",
      "effectiveGasPrice": "0x186a0",
      "from": "0x2f321372e8a9755cd2ca6114eb8da32a14f8100b",
      "to": "0x4518f95bd1ab24b73aeb6aeafd1567e1e04894ea",
      "contractAddress": null,
      "l1BaseFeeScalar": "0x21f9",
      "l1BlobBaseFee": "0x2eb390d",
      "l1BlobBaseFeeScalar": "0xdd3ef",
      "l1Fee": "0x12fecf419f",
      "l1GasPrice": "0xde58dce8",
      "l1GasUsed": "0x90c"
    }
  ],
  "libraries": [],
  "pending": [],
  "returns": {},
  "timestamp": 1735079659,
  "chain": 480,
  "commit": "038f3f6d"
}